:020000040800F2
:1000000000500020C12800080D2600081126000815
:1000100025260008272600082926000800000000E1
:100020000000000000000000000000002B26000877
:100030002D260008000000002F26000831260008A9
:100040000D2900080D2900080D2900080D290008B8
:100050000D2900080D2900080D2900080D290008A8
:100060000D2900080D2900080D2900080D29000898
:100070000D2900080D290008392600084926000826
:100080000D2900080D2900080D2900080D29000878
:100090000D2900080D2900080D2900080D29000868
:1000A0000D2900080D2900080D2900080D29000858
:1000B0000D2900080D2900080D2900080D29000848
:1000C0000D2900080D2900080D2900080D29000838
:1000D0000D290008592600080D2900080D290008DF
:1000E0000D2900080D2900080D2900080000000056
:1000F0000000000000000000000000000000000000
:0C01000000000000000000005FF808F1A3
:10010C0010B5054C237833B9044B13B10448AFF345
:10011C0000800123237010BD58080020000000004F
:10012C00A832000808B5034B1BB103490348AFF3D1
:10013C00008008BD000000005C080020A832000808
:10014C0010B504460E4B18784FF47A73B3FBF0F3EA
:10015C000C4A1068B0FBF3F000F0A4F868B90F2C4F
:10016C0001D901200AE0002221464FF0FF3000F0B7
:10017C0057F8054B1C60002000E0012010BD00BFAB
:10018C00000000200C0000200400002008B5074AE5
:10019C00136843F010031360032000F02FF80020C5
:1001AC00FFF7CEFF02F054F9002008BD00200240FA
:1001BC00034A1168034B1B780B441360704700BF54
:1001CC00B008002000000020014B1868704700BFE9
:1001DC00B008002038B50446FFF7F6FF0546B4F129
:1001EC00FF3F02D0044B1B781C44FFF7EDFF401B74
:1001FC00A042FAD338BD00BF00000020074AD368E4
:10020C0023F4E0631B041B0C000200F4E0600343C6
:10021C0043F0BF6343F40033D360704700ED00E05C
:10022C0030B4174BDB68C3F30223C3F10704042C6F
:10023C0028BF04241D1D062D18D9033B4FF0FF3594
:10024C0005FA04F421EA0401994005FA03F322EAC1
:10025C000303194300280BDB0901C9B200F160400C
:10026C0000F5614080F8001330BC70470023E5E7CF
:10027C0000F00F000901C9B2024B1954F4E700BF9A
:10028C0000ED00E014ED00E0002807DB00F01F0299
:10029C00400901239340024A42F82030704700BFC6
:1002AC0000E100E00138B0F1807F0AD2064B5860C3
:1002BC00064AF02182F823100020986007221A6069
:1002CC0070470120704700BF10E000E000ED00E037
:1002DC0070B4066CC56B0124B4406C600468636038
:1002EC004368102B05D0036899600368DA6070BC12
:1002FC00704703689A600368D960F8E760B310B47C
:10030C0002460168154B0B441548A0FB03031B095F
:10031C009B001364134BD363022382F821300868CB
:10032C0020F47F5020F03000536894682343D46845
:10033C002343146923435469234394692343D469A5
:10034C00234303430B6000209063012382F8213088
:10035C0082F8200010BC704701207047F8FFFDBFE9
:10036C00CDCCCCCC0000024038B5044690F820002F
:10037C00012831D0012084F8200094F821000128B4
:10038C0004D0002384F82030022038BD022084F8E9
:10039C0021000020A0632568286820F00100286057
:1003AC002046FFF795FFE36A5BB12268136843F0C0
:1003BC000E0313602268136843F0010313600020DE
:1003CC00E3E72268136823F00403136022681368C0
:1003DC0043F00A031360EDE70220D6E738B5C36B90
:1003EC001A6804682568016C04238B40134235D0CD
:1003FC0015F0040F32D0236813F0200F03D12368BB
:10040C0023F0040323600368434A934214D014324C
:10041C00934218D01432934217D01432934217D00F
:10042C001432934217D01432934202D04FF08062B0
:10043C0003E04FF4800200E00422384B5A60C36A98
:10044C0003B1984738BD4022F7E74FF48062F4E7D8
:10045C004FF48042F1E74FF48022EEE702238B4009
:10046C0013423CD015F0020F39D0236813F0200F43
:10047C0006D1236823F00A032360012380F821307E
:10048C000368254A934214D0143293421CD0143280
:10049C0093421BD0143293421BD0143293421BD084
:1004AC001432934202D04FF0007203E04FF400126A
:1004BC0000E00222194B5A60002380F82030836A36
:1004CC00002BBFD09847BDE72022F3E74FF4007212
:1004DC00F0E74FF40052EDE74FF40032EAE708235F
:1004EC0003FA01F11142ADD015F0080FAAD0236820
:1004FC0023F00E032360026CC16B012303FA02F29A
:10050C004A60836380F82130002380F82030036B2D
:10051C00002B97D0984795E7080002400000024056
:10052C00044B0022DA61044A136943F0010313619E
:10053C0001807047B808002000200240194BDB688E
:10054C0013F0100305D0184AD36943F00203D361AA
:10055C001023144AD26812F0040F06D01249CA694B
:10056C0042F00102CA6143F004030E4AD26912F050
:10057C00010F09D00C49CA6942F00402CA61094949
:10058C00CA6922F00102CA6140F20112934202D000
:10059C00044AD3607047034AD36923F00103D36143
:1005AC00704700BF00200240B80800200A4B1B69AE
:1005BC0013F0800F0BD0084B084A5A6002F18832B6
:1005CC005A601B6913F0800F03D100207047002084
:1005DC0070470120704700BF00200240230167458F
:1005EC00034A136943F0800313610020704700BF76
:1005FC000020024038B50446FFF7E6FD0546164BD1
:10060C00DB6813F0010F0AD0B4F1FF3FF7D024B12F
:10061C00FFF7DAFD401BA042F1D903201BE00E4B83
:10062C00DB6813F0200F02D00B4B2022DA600A4B50
:10063C00DB6813F0100F0BD1074BDB6913F0010FC4
:10064C0006D1054BDB6813F0040F01D1002002E04A
:10065C00FFF774FF012038BD002002402DE9F8435C
:10066C001E46234B1B7E012B40D004460F46904662
:10067C001F4B01221A764CF25030FFF7BBFF03469A
:10068C0070BB012C29D0022C24D04FF004091C463D
:10069C004C4525D22101C1F12002A1F1200328FAF9
:1006AC0001F106FA02F2114326FA03F3194389B257
:1006BC0007EB4400FFF734FF4CF25030FFF79AFF82
:1006CC000C4B1D6925F001051D61034640B9013431
:1006DC00E4B2DDE74FF00209D9E74FF00109D6E7A4
:1006EC00034A002111761846BDE8F8830223FAE785
:1006FC00B808002000200240F0B482B000252C463F
:10070C00A3E07F4FBB4210D007D97E4FBB420CD029
:10071C0007F58037BB4208D013E0A7F58017BB4222
:10072C0003D007F57027BB4207D18B68002B58D03C
:10073C00012B51D04261082503E0A7F58017BB427D
:10074C00F3D0FF2E4FD88446FF2E4FD8A200DCF8F2
:10075C0000300F27974023EA070305FA02F21343F0
:10076C00CCF800304B6813F0805F6DD0664B9A6903
:10077C0042F001029A619B6903F001030193019B12
:10078C00A208971C614B53F8273004F00307BF00F5
:10079C004FF00F0C0CFA07FC23EA0C0C5C4B984244
:1007AC002AD003F58063984200F08A8003F58063B9
:1007BC00984200F0878003F5806398421AD0042396
:1007CC001BE0CD68BDE7CD680435BAE7CD680835C8
:1007DC00B7E7CD680C35B4E702610825B1E7002511
:1007EC00AFE70425ADE700F1040CADE7A4F1080276
:1007FC009200ACE7032300E00023BB4043EA0C0368
:10080C000232424F47F822304B6813F4803F5BD0E2
:10081C00404A1368334313604B6813F4003F59D0BC
:10082C003C4A5368334353604B6813F4801F57D0D2
:10083C00384A9368334393604B6813F4001F55D0C8
:10084C00344AD3681E43D66001340B6833FA04F281
:10085C0052D00122A24003EA020632EA0303F3D18A
:10086C004B68122B3FF64DAF122B3FF66AAF01A728
:10087C0057F823F037070008CF070008D9070008FE
:10088C00EB0700084F0700084F0700084F07000848
:10089C004F0700084F0700084F0700084F070008D4
:1008AC004F0700084F0700084F0700084F070008C4
:1008BC004F0700084F070008D3070008DF070008A0
:1008CC0001239AE7022398E7124A136823EA0603E6
:1008DC001360A1E70F4A536823EA06035360A3E7AA
:1008EC000C4A936823EA06039360A5E7094AD36888
:1008FC0023EA0606D660A7E702B0F0BC704700BF3B
:10090C0000002210000031100010024000000140D5
:10091C0000080140000401400AB10161704709045C
:10092C000161704703685A6912F4806F01D100208D
:10093C0070476FF480625A6100230363202280F8B1
:10094C003D2080F83E30026C42F00402026480F8D4
:10095C003C30012070472DE9F04107460D4690468A
:10096C001E4622E0FFF730FC069BC01AB04200D8AE
:10097C00DEB900233B63202287F83D2087F83E3008
:10098C003A6C42F020023A6487F83C3001201AE0BD
:10099C003B689C6925EA0404A4B2B4FA84F46409A3
:1009AC00A0450FD1B6F1FF3FDCD1C5F30743012BB6
:1009BC00EED13B685C6925EA0404A4B2B4FA84F471
:1009CC006409EDE70020BDE8F0812DE9F041054612
:1009DC000E46174698463DE01A6842F400721A60BB
:1009EC002B686FF480625A6100232B63202285F8F8
:1009FC003D2085F83E302A6C42F004022A6485F8CA
:100A0C003C30012034E0FFF7DFFBA0EB0800B842DC
:100A1C0000D8FFB900232B63202285F83D2085F8F0
:100A2C003E302A6C42F020022A6485F83C300120CA
:100A3C001EE02B689C6926EA0404A4B2003C18BF93
:100A4C000124A4B12B685A6912F4806FC4D1B7F198
:100A5C00FF3FD8D1C6F30743012BEAD12B685C6961
:100A6C0026EA0404A4B2003C18BF0124E9E70020E4
:100A7C00BDE8F08170B504460D46164623685B69E7
:100A8C0013F0800F1CD12046FFF74CFFD0B9B5F105
:100A9C00FF3FF3D0FFF798FB801BA84201D8002D35
:100AAC00ECD100232363202284F83D2084F83E30CF
:100ABC00226C42F02002226484F83C30012000E0D9
:100ACC00002070BD0120FCE72DE9F04784B00446FE
:100ADC000D4616469946DDF830800D9F0268136866
:100AEC0043F4806313600368196841F480711960E2
:100AFC000097434600224FF00111FFF72CFF18B16D
:100B0C00012004B0BDE8F0875FFA85FA236805F090
:100B1C00FE051D613B46424636492046FFF755FF10
:100B2C0008B10120EDE70023039323685A6903926F
:100B3C009B690393039B3A4641462046FFF79AFF75
:100B4C0080B9B9F1010F18D12368F6B21E613A468B
:100B5C0041462046FFF78EFF68B3236C042B24D04C
:100B6C000120CEE7236C042B01D00120C9E72268B9
:100B7C00136843F400731360F7E72368320A1A61B1
:100B8C003A4641462046FFF775FF18B92368F6B27E
:100B9C001E61DCE7236C042B01D00120B1E7226835
:100BAC00136843F400731360F7E72268136843F487
:100BBC0000731360D4E72268136843F480731360E6
:100BCC000097434600224FF001112046FFF7C3FE69
:100BDC0008B1012095E722684AF0010313613B46F6
:100BEC00424604492046FFF7F0FE002889D0012038
:100BFC0087E700BF0200010070B505460C4616469B
:100C0C002B68596911F0400F29D1596911F0100F57
:100C1C0015D1FFF7D9FA801BA04201D8002CEFD1D7
:100C2C0000232B63202285F83D2085F83E302A6C6A
:100C3C0042F020022A6485F83C30012070BD6FF030
:100C4C0010025A6100232B63202285F83D2085F881
:100C5C003E302A6C2A6485F83C300120EEE70020F7
:100C6C00ECE70000002800F0C280F8B5044690F8CC
:100C7C003D30002B6DD0242384F83D30226813685E
:100C8C0023F00103136000F04FFD62685A4B9A4247
:100C9C0064D85A4B98428CBF00230123002B40F0A0
:100CAC00A880574DA5FB0035AF0C2668716821F064
:100CBC003F0141EA9541716021680B6A23F03F03C3
:100CCC0065684D4A95424FD87A1C13430B622568D0
:100CDC00E96921F44F4121F0FF016368464A9342D0
:100CEC004CD801385B00B0FBF3F0013040F6FC73DC
:100CFC00184278D0C0F30B030B43EB6121680B68EF
:100D0C0023F0C003E269206A024313430B6021689D
:100D1C008B6823F4034323F0FF032269E06802434A
:100D2C0013438B602168CB6823F0FF036269A069D1
:100D3C0002431343CB602268136843F00103136032
:100D4C0000202064202384F83D30206384F83E008A
:100D5C00F8BD80F83C3001F09DFB8CE7294B9842A4
:100D6C008CBF0023012399E74FF4967202FB07F224
:100D7C00254DA5FB025292090132A6E7A268BAB929
:100D8C00461E03EB4307B6FBF7F60136C6F30B061C
:100D9C00B6FA86F6760946BBC2B9421E03EB43038C
:100DAC00B2FBF3F20132C2F30B0242F40043A3E7AD
:100DBC00461E03EB830707EB8707B6FBF7F60136F6
:100DCC00C6F30B06B6FA86F67609E4E7421E03EB89
:100DDC00830303EB8303B2FBF3F20132C2F30B0286
:100DEC0042F4404388E7042386E7012384E701208B
:100DFC0070470120ACE700BFA08601007F841E0075
:100E0C0083DE1B43FF083D00D34D62102DE9F043F8
:100E1C0087B004460F4690469946109EFFF7D4F9CA
:100E2C00054694F83D00C0B2202804D0022738466D
:100E3C0007B0BDE8F0830095192301228F492046A5
:100E4C00FFF789FD002840F0518194F83C30012BCC
:100E5C0000F04E81012384F83C3023681A6812F0AC
:100E6C00010F03D11A6842F001021A60226813685C
:100E7C0023F400631360222384F83D30402384F86C
:100E8C003E30002323640E9B6362BDF83C306385C7
:100E9C00638D23857A4BE362019500964B4642465F
:100EAC0039462046FFF710FE0746002840F0228105
:100EBC00238D5BB9029323685A6902929A69029254
:100ECC00029A1A6842F400721A60A5E0012B0FD046
:100EDC00022B21D02268136843F480631360002333
:100EEC00059323685A6905929B690593059B93E0CA
:100EFC002268136823F48063136072B60023039393
:100F0C0023685A6903929A690392039A1A6842F405
:100F1C0000721A6062B67FE02268136843F40063C3
:100F2C00136072B60023049323685A6904929A6979
:100F3C000492049A1A6822F480621A6062B66BE01A
:100F4C002A4631462046FFF757FE002840F0D48051
:100F5C0023681A69636A1A70636A01336362238DAA
:100F6C00013B2385638D9BB2013B9BB2638553E0B0
:100F7C0000953346002243492046FFF7ECFC00283D
:100F8C0040F0BC8072B62268136843F4007313609F
:100F9C0023681A69636A1A70636A01336362238D6A
:100FAC00013B2385638D9BB2013B9BB2638562B68B
:100FBC0023681A69636A1A70636A01336362238D4A
:100FCC00013B2385638D9BB2013B9BB2638523E080
:100FDC002268136843F40073136023681A69636A08
:100FEC001A70636A01336362238D013B2385638D21
:100FFC009BB2013B9BB2638562B623681A69636A34
:10100C001A70636A01336362238D013B2385638D00
:10101C009BB2013B9BB26385238D002B5DD0032BD0
:10102C0032D8012B8CD0022BA2D000953346002253
:10103C0014492046FFF78FFC002861D12268136801
:10104C0023F48063136072B623681A69636A1A709A
:10105C00636A01336362238D013B2385638D9BB2ED
:10106C00013B9BB26385009533460022054920461F
:10107C00FFF771FC0028ABD00127D8E60200100066
:10108C000000FFFF040001002A4631462046FFF70E
:10109C00B3FD002836D123681A69636A1A70626A34
:1010AC00531C6362238D013B2385638D9BB2013BF3
:1010BC009BB263852368596911F0040FACD01B698E
:1010CC005370636A01336362238D013B2385638D07
:1010DC009BB2013B9BB263859EE7202384F83D3095
:1010EC00002384F83E3084F83C30A0E602279EE6CC
:1010FC0002279CE601279AE6012798E6012796E647
:10110C00012794E6012792E682B0084B1B68084A37
:10111C00A2FB03235B0A00FB03F3019300BF019BBB
:10112C005A1E0192002BF9D102B070470C0000201E
:10113C00D34D6210002800F0F18170B582B00446E6
:10114C00036813F0010F2CD0AA4B5B6803F00C035F
:10115C00042B1DD0A74B5B6803F00C03082B12D09B
:10116C006368B3F5803F41D0002B55D103F1804328
:10117C0003F504331A6822F480321A601A6822F4D8
:10118C0080221A6037E09B4B5B6813F4803FE7D0FA
:10119C00984B1B6813F4003F03D06368002B00F0DE
:1011AC00BF81236813F0020F75D0924B5B6813F06C
:1011BC000C0F5FD08F4B5B6803F00C03082B54D0E3
:1011CC002369002B00F089808B4B01221A60FEF7FB
:1011DC00FBFF0546874B1B6813F0020F74D1FEF71B
:1011EC00F3FF401B0228F5D903209EE1814A1368C6
:1011FC0043F480331360636843B3FEF7E5FF0546A1
:10120C007C4B1B6813F4003FCBD1FEF7DDFF401B7A
:10121C006428F5D9032088E1B3F5A02F09D0754BCC
:10122C001A6822F480321A601A6822F480221A603A
:10123C00E1E703F18043A3F53C331A6842F48022C2
:10124C001A601A6842F480321A60D4E7FEF7BCFFC9
:10125C000546684B1B6813F4003FA2D0FEF7B4FFA1
:10126C00401B6428F5D903205FE1624B5B6813F4E3
:10127C00803FA5D15F4B1B6813F0020F03D023698D
:10128C00012B40F04F815B4A136823F0F80361692E
:10129C0043EAC1031360236813F0080F32D0A3692B
:1012AC00002B45D0554B01221A60FEF78DFF0546E9
:1012BC00504B5B6A13F0020F21D1FEF785FF401BE8
:1012CC000228F5D9032030E14A4A136823F0F803C9
:1012DC00616943EAC1031360DDE7474B00221A60E2
:1012EC00FEF772FF0546434B1B6813F0020FD2D07A
:1012FC00FEF76AFF401B0228F5D9032015E10120F7
:10130C00FFF702FF236813F0040F00F09780394BAE
:10131C00DB6913F0805F1DD1364BDA6942F08052E5
:10132C00DA61DB6903F080530193019B012512E024
:10133C00324B00221A60FEF747FF05462D4B5B6AC5
:10134C0013F0020FDED0FEF73FFF401B0228F5D949
:10135C000320EAE000252A4B1B6813F4807F11D090
:10136C00E368012B22D0002B38D103F1804303F525
:10137C0004331A6A22F001021A621A6A22F0040279
:10138C001A6218E01E4A136843F480731360FEF768
:10139C001BFF06461A4B1B6813F4807FE0D1FEF747
:1013AC0013FF801B6428F5D90320BEE0114A136A91
:1013BC0043F001031362E36873B3FEF705FF0646BF
:1013CC000C4B1B6A13F0020F37D1FEF7FDFE801B8E
:1013DC0041F288339842F3D90320A6E0052B11D0B3
:1013EC00044B1A6A22F001021A621A6A22F00402F1
:1013FC001A62E0E7001002400000424280044242C0
:10140C00007000404D4B1A6A42F004021A621A6ACC
:10141C0042F001021A62CEE7FEF7D6FE0646474BB3
:10142C001B6A13F0020F08D0FEF7CEFE801B41F2B0
:10143C0088339842F3D9032077E0E5B9E369002BB0
:10144C0072D03E4A526802F00C02082A56D0022B87
:10145C0017D03B4B00221A60FEF7B6FE0446374B02
:10146C001B6813F0007F47D0FEF7AEFE001B02286E
:10147C00F5D9032059E0314AD36923F08053D36165
:10148C00DCE72F4B00221A60FEF79EFE05462B4B25
:10149C001B6813F0007F06D0FEF796FE401B022857
:1014AC00F5D9032041E0236AB3F5803F1AD02349D4
:1014BC004B6823F47413226A606A024313434B6033
:1014CC001F4B01221A60FEF77FFE04461B4B1B6864
:1014DC0013F0007F0ED1FEF777FE001B0228F5D922
:1014EC00032022E0154A536823F40033A1680B4310
:1014FC005360DCE7002018E0002016E0012B16D02A
:10150C000E4B5B6803F48031226A914211D103F4D3
:10151C007013626A93420ED1002006E001207047DE
:10152C00012002E0012000E0002002B070BD01208B
:10153C00FBE70120F9E70120F7E700BF00100240AC
:10154C006000424286B0164B0FCB0DF1180C0CE923
:10155C000F0040F20123ADF80430124B5B6803F02E
:10156C000C02082A02D0104806B07047C3F383421D
:10157C00624412F8102C13F4803F0CD0094B5B68BA
:10158C00C3F34043634413F8143C074800FB02F0D8
:10159C00B0FBF3F0E8E7054800FB02F0E4E700BF1E
:1015AC00D03200080010024000127A0000093D0001
:1015BC00002800F0A08070B50D460446524B1B6805
:1015CC0003F007038B420BD24F4A136823F0070337
:1015DC000B431360136803F007038B4240F08D80BC
:1015EC00236813F0020F17D013F0040F04D0474AEE
:1015FC00536843F4E0635360236813F0080F04D07E
:10160C00424A536843F460535360404A536823F092
:10161C00F003A1680B435360236813F0010F31D022
:10162C006368012B20D0022B25D0384A126812F0A7
:10163C00020F64D035494A6822F0030213434B6011
:10164C00FEF7C2FD0646314B5B6803F00C03626883
:10165C00B3EB820F16D0FEF7B7FD801B41F2883337
:10166C009842F0D9032045E0284A126812F4003F52
:10167C00E0D101203EE0254A126812F0007FD9D15A
:10168C00012037E0204B1B6803F00703AB420AD95B
:10169C001D4A136823F007032B431360136803F0F0
:1016AC000703AB422DD1236813F0040F06D0174A61
:1016BC00536823F4E063E1680B435360236813F031
:1016CC00080F07D0114A536823F46053216943EA89
:1016DC00C1035360FFF736FF0C4B5B68C3F3031376
:1016EC000B4AD35CD8400B4B18600B4B1868FEF7B9
:1016FC0027FD002070BD012070470120FAE7012072
:10170C00F8E70120F6E700BF00200240001002407D
:10171C00E43400080C00002004000020014B186881
:10172C00704700BF0C00002008B5FFF7F7FF044B13
:10173C005B68C3F30223034AD35CD84008BD00BFE7
:10174C0000100240F434000808B5FFF7E7FF044B23
:10175C005B68C3F3C223034AD35CD84008BD00BF07
:10176C0000100240F43400080268D36823F0C00370
:10177C00D360202380F8393070470268D36823F493
:10178C009073D3600268536923F0010353612023E3
:10179C0080F83A307047000038B504460268136987
:1017AC0023F44053C1680B431361836802691343EC
:1017BC0042691A430168CB6823F4B05323F00C033D
:1017CC001343CB600268536923F4407381690B4364
:1017DC0053610268214B9A421FD0FFF7A5FF00EB23
:1017EC00800000EB800063689B00B0FBF3F01C4DA5
:1017FC00A5FB00325109642303FB11031B01323397
:10180C00A5FB03235B0903F0F00202EB011203F0CA
:10181C000F03216813448B6038BDFFF795FF00EB75
:10182C00800000EB800063689B00B0FBF3F00C4D74
:10183C00A5FB00325109642303FB11031B01323356
:10184C00A5FB03235B0903F0F00202EB011203F08A
:10185C000F03216813448B60DEE700BF00380140A2
:10186C001F85EB512DE9F84305460F461646994660
:10187C00DDF820802C68246837EA04030CBF0124AF
:10188C000024B4421FD1B8F1FF3FF3D0B8F1000FE0
:10189C0005D0FEF799FCA0EB09004045EAD92A686F
:1018AC00D36823F4D073D3602A68536923F00103FF
:1018BC005361202385F8393085F83A30002385F8B8
:1018CC003830032000E00020BDE8F88358B310B591
:1018DC00044690F839300BB3242384F8393022684D
:1018EC00D36823F40053D3602046FFF755FF2268DA
:1018FC00136923F4904313612268536923F02A037C
:10190C0053612268D36843F40053D3600020E06332
:10191C00202384F8393084F83A3010BD80F8383000
:10192C0000F0EAFDD8E7012070472DE9F04182B0C4
:10193C001E4690F83930DBB2202B58D104460D46A8
:10194C009046002957D0002A57D090F83830012BF8
:10195C0055D0012380F838300023C363212380F84D
:10196C003930FEF731FC0746A4F82480A4F8268011
:10197C0017E000963B46002280212046FFF772FFBD
:10198C0000283ED12B882268C3F3080353602369D7
:10199C000BB9023505E0013503E015F8012B23687E
:1019AC005A60E38C9BB29BB1E28C92B2013A92B238
:1019BC00E284A368B3F5805FDBD000963B4600223F
:1019CC0080212046FFF74EFF0028E6D003200FE0D1
:1019DC0000963B46002240212046FFF743FF90B97A
:1019EC00202384F83930002384F8383000E00220BA
:1019FC0002B0BDE8F0810120FAE70120F8E70220EF
:101A0C00F6E70320F4E70320F2E7000030B583B0DB
:101A1C00044690F83A00C0B220283CD100293DD0B1
:101A2C00002A3DD094F83830012B3BD0012384F8A8
:101A3C003830A162A2850025E563222384F83A3070
:101A4C00636B19489862636B1848D862636B1848CB
:101A5C001863636B5D63206813460A46011D606B57
:101A6C00FEF782FC019523681A6801925A6801926C
:101A7C00019A84F83850DA6842F48072DA6022688D
:101A8C00536943F0010353612268536943F04003E7
:101A9C005361284600E0022003B030BD0120FBE773
:101AAC000120F9E70220F7E7C11A0008011B000822
:101ABC000D1B000808B50346406A1B681B6813F031
:101ACC00200F13D10023C3850268D36823F48073DD
:101ADC00D3600268536923F00103536102685369B0
:101AEC0023F040035361202380F83A3000F0DEFBF2
:101AFC0008BD704708B5406AFFF7FBFF08BD70478B
:101B0C0010B5446A23685A6994F83930DBB2212B3A
:101B1C0010D023685A6902F0400294F83A30DBB2D4
:101B2C00222B11D0E36B43F01003E3632046FFF745
:101B3C00E6FF10BD02F08002002AEAD00023E38405
:101B4C002046FFF711FEE4E7002AEBD00023E385E3
:101B5C002046FFF712FEE5E700B587B002460023EA
:101B6C008DF8173064230293012301930DF11701B3
:101B7C0000916C210348FFF749F99DF8170007B055
:101B8C005DF804FB940A002010B50D20FFF7E4FF6C
:101B9C0084B20C20FFF7E0FF80B2000280B2204438
:101BAC0080B210BD08B5FFF7EFFF014B188008BDE0
:101BBC00D80800200C4BDA6822F08072DA60DA6800
:101BCC0042F08072DA60094B1A6822F001021A6046
:101BDC001A6842F001021A6000225A6000BF00BF6E
:101BEC0000BF5B68704700BFF0ED00E0001000E044
:101BFC0010B582B001900A4B5C68FFF78FFD094964
:101C0C00A1FB0031890C019B01FB03F30193044BF5
:101C1C005A68121B019B5B1A9A42F8D302B010BD92
:101C2C00001000E083DE1B4338B504460D46FEF77A
:101C3C00BDFCEAB2002321460220FEF70FFDFEF7A1
:101C4C00CFFC38BD08B500F063FB0F4B1860FEF7F6
:101C5C009DFA00F0C7FD00F05BFD00F037FD00F0D1
:101C6C00F3FD00F00DFEFFF7A5FF00F0E3FBFFF71F
:101C7C0099FF002220210548FEF74EFE00F0ACFA39
:101C8C0000F08CFAFCE700BFE0080020000C0140DB
:101C9C004038382861D8DFE800F01D2160602560ED
:101CAC0060606060606029602D6031603560396013
:101CBC0060603D604160606060606060456049608C
:101CCC0060604D606060516060605560606059603C
:101CDC0060605D00214B1B68197070471F4B1B68BF
:101CEC00597070471D4B1B68997070471B4B1B68D4
:101CFC00D9807047194B1B6819817047174B1B68AB
:101D0C0059817047154B1B6899817047134B1B68A1
:101D1C00D9817047114B1B68198270470F4B1B6898
:101D2C00598270470D4B1B68197570470B4B1B681C
:101D3C00D9827047094B1B6899617047074B1B6828
:101D4C00D9617047054B1B6819627047034B1B68C0
:101D5C0059627047014B1B68198570477C0900203C
:101D6C00014B1B68587270477809002008B5014672
:101D7C00034B1B6898720348FFF756FF08BD00BF62
:101D8C007809002004FC010808B50146034B1B68C8
:101D9C00D8720348FFF748FF08BD00BF7809002040
:101DAC0005FC010808B50146034B1B681873034872
:101DBC00FFF73AFF08BD00BF7809002006FC0108B8
:101DCC0008B50146034B1B6858730348FFF72CFFFB
:101DDC0008BD00BF7809002007FC010808B50146C2
:101DEC00034B1B6898730348FFF71EFF08BD00BF29
:101DFC007809002008FC010808B50146034B1B6854
:101E0C00D8730348FFF710FF08BD00BF7809002006
:101E1C0009FC010808B50146034B1B68186103480F
:101E2C00FFF702FF08BD00BF780900200AFC01087B
:101E3C0008B50146034B1B6858610348FFF7F4FED5
:101E4C0008BD00BF780900200BFC010808B501464D
:101E5C00034B1B6818760348FFF7E6FE08BD00BF6E
:101E6C00780900200CFC010808B50146034B1B68DF
:101E7C0058830348FFF7D8FE08BD00BF780900203F
:101E8C000EFC010808B50146034B1B6898830348F8
:101E9C00FFF7CAFE08BD00BF780900200DFC010841
:101EAC0008B50146034B1B68D8832420FFF7BCFE02
:101EBC0008BD00BF7809002008B50146034B1B681C
:101ECC0018622C20FFF7B0FE08BD00BF7809002077
:101EDC0008B50146034B1B6858623420FFF7A4FE7B
:101EEC0008BD00BF7809002008B50146034B1B68EC
:101EFC0098623020FFF798FE08BD00BF78090020DB
:101F0C0008B50146034B1B6883F82C003F20FFF7F4
:101F1C008BFE08BD7809002008B503460846073B30
:101F2C00382B21D8DFE803F01D2124272A2D30205F
:101F3C00202020202033202020362020202020206C
:101F4C00393C203F204220202020202020452020EA
:101F5C0020482020204B2020202020202020202022
:101F6C004E00C8B2FFF7FCFE08BDFFF7FFFEFBE713
:101F7C00FFF70AFFF8E7FFF715FFF5E7FFF720FF7C
:101F8C00F2E7FFF72BFFEFE7FFF736FFECE7FFF782
:101F9C0041FFE9E7FFF74CFFE6E7FFF757FFE3E701
:101FAC00FFF770FFE0E7FFF75FFFDDE7FFF778FF74
:101FBC00DAE7FFF781FFD7E7FFF796FFD4E7FFF7E4
:101FCC0087FFD1E7FFF79CFFCEE70000002102233B
:101FDC0005E0044AD25C8A40104408310133102BCE
:101FEC00F7D970476409002010B50C4B1A785C784F
:101FFC0004EB0224A4B2FFF7E9FF01463F2C04D8FE
:10200C00074B1B681B7823B110BD2046FFF740FE21
:10201C00FAE72046FFF780FFF6E700BF64090020CF
:10202C007C0900200023934210D230B411F8014BEC
:10203C0084EA1024064D35F9144084EA002080B25D
:10204C0001339BB29342F1D330BC7047704700BF51
:10205C00E432000810B584B00A4B6C460FCB07C4B1
:10206C0023800C2269460020FFF7DCFF8DF80C0062
:10207C00C0F307208DF80D000E21684600F020F902
:10208C0004B010BDC032000808B5094B1868FFF742
:10209C00AFFD084B1B78022B03D0032B05D0012B73
:1020AC0000D008BDFFF7D6FFFBE7FFF79DFFF8E771
:1020BC0008000020820900202DE9F843304C2068EC
:1020CC0000F07BF98146206800F077F9064620681D
:1020DC0000F073F98046206800F06FF9074605029E
:1020EC00ADB21FFA88F31D44ADB2206800F065F95B
:1020FC00244B1870012800D000BF1D2D30D9204D65
:10210C00286800F05AF9204C2070286800F055F926
:10211C0060701E490B78DFF880C003EB430503EBBE
:10212C0085050CEB05020CF80590567082F80280C0
:10213C00D770144D2D78157124785471907100203E
:10214C00D0710133DBB2124AA2FB0302120902EB7B
:10215C008202A3EB82030B70052E0DD0BDE8F88331
:10216C000024EB1EA342CADD054B186800F025F9CC
:10217C00084B18550134F4E7FFF786FFEEE700BF74
:10218C00E00800208209002080090020740800204B
:10219C00CDCCCCCC640900208409002038B50024B7
:1021AC0025460B4B186800F0C6F878B9084B186830
:1021BC0000F003F9230203EB054303442546054ACB
:1021CC00934201D00446ECE7FFF776FF38BD00BF21
:1021DC00E0080020FDFFFF0008B50A4B00221A7032
:1021EC0009480268D36843F01003D360074B1A68A0
:1021FC00136843F00203136040220549FFF706FC05
:10220C0008BD00BFDC080020700B00202C0B002048
:10221C00E4080020074B5B6B1B685B689BB2064AAB
:10222C0012785B4203F03F039A4201D000207047C2
:10223C0001207047700B0020DC0800200B4B5B6BFF
:10224C001B685B689BB20A4A127891B25B4203F03E
:10225C003F03994207D0531C0649885C03F03F03A7
:10226C00034A137070470020704700BF700B0020AA
:10227C00DC080020E408002010B5FFF7CBFF80B984
:10228C00084B186800F069F858B9064B1C68FFF742
:10229C00D5FF0146204600F06CF8034B01221A7062
:1022AC00EBE710BDE0080020880A002008B5034BBE
:1022BC0000221A70FFF7E0FF08BD00BF880A00205B
:1022CC0070B506460D46012220210E48FEF724FB70
:1022DC0000239D4208DDF45C0B4AD4540133F8E72B
:1022EC00094A0021D15401333F2BF9DD022340224E
:1022FC0005490648FFF719FB002220210148FEF78B
:10230C000BFB70BD000C014024090020700B002059
:10231C0008B54FF4847000F019FB4FF0FF33C0F890
:10232C0000310023C0F80431FF2B03DC0022C2541F
:10233C000133F9E708BDD0F80031B3F1FF3F01D00C
:10234C000020704701207047D0F80401013043424F
:10235C00C0B2DBB258BF5842704710B50446FFF705
:10236C00F3FFD4F80031984201D0002010BD0120B9
:10237C00FCE738B504460D46FFF7EFFF90B9204651
:10238C00FFF7D9FF30B1D4F80431C4F80031E5546B
:10239C00012008E02046FFF7D7FFC4F804012554BC
:1023AC00012000E0002038BDD0F80001013043428C
:1023BC00C0B2DBB258BF5842704738B50446FFF77D
:1023CC00BAFF98B9D4F80031D4F80421934207D05D
:1023DC00E55C2046FFF7E8FFC4F80001284638BD4D
:1023EC00E55C4FF0FF33C4F80031F7E70025F5E763
:1023FC0010B50A4C00224FF400412046FEF78CFA2F
:10240C0000224FF480412046FEF786FA01224FF459
:10241C0000512046FEF780FA10BD00BF000C0140B1
:10242C0008B500224FF400710148FEF775FA08BD9B
:10243C000008014008B5054B3C229A8008229A718D
:10244C00FFF7D6FFFFF7ECFF08BD00BF8C0A00209A
:10245C0082B00E4B9A6942F001029A619A6902F0BD
:10246C0001020092009ADA6942F08052DA61DB696B
:10247C0003F080530193019B054A536823F0E063FA
:10248C0043F00073536002B0704700BF001002406D
:10249C000000014010B586B000230293039304930F
:1024AC0005930268114B9A4201D006B010BD104C36
:1024BC00A36943F00803A361A36903F00803009325
:1024CC00009B4FF440630293122303930323059361
:1024DC0002A90848FEF710F9E36943F48003E361AD
:1024EC00E36903F480030193019BDEE7005800408D
:1024FC0000100240000C01402DE9F04186B0002391
:10250C0002930393049305930268364B9A4202D0CC
:10251C0006B0BDE8F081044603F558439A6942F4CD
:10252C0080429A619A6902F480420092009A9A69F8
:10253C0042F008029A619B6903F008030193019B26
:10254C00402302934FF00208CDF80C80032305932F
:10255C00254F02A93846FEF7CFF8802602960025B3
:10256C000395CDF8108002A93846FEF7C5F81F4A2E
:10257C00536843F0E06343F0040353601C481D4B65
:10258C00036045608560C6600561456120238361F9
:10259C00C561FDF7B3FEF8B9154B63635C62164871
:1025AC00164B036010234360002383608022C260BB
:1025BC000361436120228261C361FDF79FFE70B904
:1025CC000D4B23635C62002201212520FDF728FEC0
:1025DC002520FDF759FE9BE700F0ECF8DCE700F056
:1025EC00E9F8EDE700380140000C01400000014023
:1025FC002C0B002058000240E80A00204400024046
:10260C007047000008B5034B1868FFF794FE00F004
:10261C00D1F8F8E7E0080020FEE7FEE7FEE7704798
:10262C007047704708B5FDF7C3FD08BD08B50248F3
:10263C00FDF7D4FE08BD00BFE80A002008B502482B
:10264C00FDF7CCFE08BD00BF2C0B002000B583B0FD
:10265C000A4B1B681B6813F0100F0BD1002301935E
:10266C00064B1B681A6801925B680193019B03B0CF
:10267C005DF804FB0148FFF719FEEFE7700B002033
:10268C000F4B1A6842F001021A6059680D4A0A4051
:10269C005A601A6822F0847222F480321A601A6826
:1026AC0022F480221A605A6822F4FE025A604FF417
:1026BC001F029A60044B4FF000629A60704700BF93
:1026CC00001002400000FFF800ED00E000B583B000
:1026DC000E4B5A6942F001025A615B6903F0010327
:1026EC000193019B002201210E20FDF799FD0E2084
:1026FC00FDF7CAFD012211460F20FDF791FD0F20B9
:10270C00FDF7C2FD03B05DF804FB00BF00100240F2
:10271C002DE9F04188B000240494059406940794A4
:10272C00214B9A6942F020029A619A6902F02002C8
:10273C000192019A9A6942F004029A619A6902F034
:10274C0004020292029A9A6942F008029A619B6909
:10275C0003F008030393039BDFF85480224640F2F6
:10276C000C714046FEF7D8F8104D22464EF220016F
:10277C002846FEF7D1F840F20C7304930127059715
:10278C0006940326079604A94046FDF7B5FF4EF2C2
:10279C002003049305970694079604A92846FDF791
:1027AC00ABFF08B0BDE8F08100100240000C014006
:1027BC000008014008B50A4C012208212046FEF70A
:1027CC00ABF84FF47A70FDF705FD00220821204686
:1027DC00FEF7A2F84FF47A70FDF7FCFCEBE700BFB4
:1027EC000008014000B591B0002309930B930C93A2
:1027FC0001930293039304930593012106914FF4E3
:10280C008032079208930A9102230D930E924FF493
:10281C00E0130F9306A8FEF78DFC80B90F230193EC
:10282C0002210291002303934FF4806204920593DA
:10283C0001A8FEF7BDFE20B911B05DF804FBFFF74F
:10284C00B9FFFFF7B7FF000008B50A480A4B036051
:10285C000A4B436000238360C3604FF480420261E3
:10286C0043618361C3610362FEF7FCF900B908BDE3
:10287C00FFF7A0FF940A002000580040A08601003A
:10288C0008B50A480A4B03604FF4E1334360002358
:10289C008360C36003610C2242618361C361FFF7F3
:1028AC0015F800B908BDFFF785FF00BF700B0020BD
:1028BC000038014000BF00BF002103E00B4B5B5808
:1028CC00435004310A480B4B42189A42F6D30A4A39
:1028DC0002E0002342F8043B084B9A42F9D3FFF77D
:1028EC00CFFE00F00FF8FFF7ADF970470C3500087C
:1028FC00000000205408002058080020D80B0020AD
:10290C00FEE7000070B50D4E0D4D761BB61006D0CF
:10291C00002455F8043B01349847A642F9D1094EDE
:10292C00094D00F0BBFC761BB61006D0002455F800
:10293C00043B01349847A642F9D170BD003500081C
:10294C00003500080835000800350008024B014628
:10295C00186800F003B800BF100000202DE9F04FFC
:10296C0001F10B05162D064683B024D8102900F270
:10297C00B68000F0A1FA102502201823DFF8E884B5
:10298C0043445C68A3F10802944200F0B48063688D
:10299C00E16823F0030323445A68A56842F001025E
:1029AC00E96030468D6008345A6000F08BFA20469E
:1029BC0003B0BDE8F08F35F0070500F19080A94217
:1029CC0000F28D8000F078FAB5F5FC7FC0F08581BF
:1029DC006B0A00F08B80042B00F25B81AB0903F1D6
:1029EC00390003F13807C100DFF87C8441444C689E
:1029FC000839A14206D10CE0002A80F22281E46859
:102A0C00A14206D0636823F003035A1B0F2AF3DD9F
:102A1C003846D8F81040DFF854C4644577D0626863
:102A2C0022F00302531B0F2B00F36581002BC8E926
:102A3C0004CC80F25681B2F5007F80F00681012132
:102A4C00D30852090B4401FA02F2D8F8041058F8D2
:102A5C00337008EBC30E0A43AEF10801C4E90271EE
:102A6C00C8F8042048F83340FC60012183109940D9
:102A7C00914253D8114206D120F003004900114273
:102A8C0000F10400FAD008EBC0094C468646E76812
:102A9C00BC4207D109E1002B80F21081FF68BC42D7
:102AAC0000F003817A6822F00302531B0F2BF2DD36
:102ABC0045F0010E3046D7E902413D4443F0010692
:102ACC00C7F804E0E1608C60C8E90455C5E902CCA4
:102ADC006E60BB5000F0F6F907F1080402E00C231D
:102AEC0000243360204603B0BDE8F08F4FF4007132
:102AFC0040203F2778E7DC68A34208BF02307FF410
:102B0C0046AFD8F81040DFF864C3644587D1012183
:102B1C00D8F80420831099409142ABD9D8F80840DA
:102B2C00676827F00307BD4202D87B1B0F2B77DCAD
:102B3C00DFF83C93C84BD9F800201B6801322B44BA
:102B4C0004EB070A00F0248103F580530F3323F4C0
:102B5C007F6B2BF00F0B5946304600F0B9F9411C36
:102B6C00024600F0E180824500F2DC80BB4B196824
:102B7C0059440846196000F04181D9F800100193BE
:102B8C0001311BBFA2EB0A0A5044C9F8002018609F
:102B9C0012F0070A00F00A81CAF108010A44CAF5CA
:102BAC00805193440831A1EB0B01C1F30B09494649
:102BBC003046009200F08CF9421CDDE9002300F055
:102BCC004381801A00EB090B19684BF00100494452
:102BDC004445C8F808201960506000F01C810F2F84
:102BEC0040F21B814FF0050C60680C3F27F0070783
:102BFC0000F00100384304EB070E0F2F6060CEE9A4
:102C0C0001CC00F2378114465068954B1A688A4201
:102C1C0038BF1960934B1A688A4238BF196086E036
:102C2C0045F0010243F00103254462603046C8F8C8
:102C3C00085008346B6000F045F9204603B0BDE83D
:102C4C00F08F23445A68E168A7E6B2F5206F4FEA8B
:102C5C00522361D3142B00F2BA8003F15C01C9003A
:102C6C005B3308EB010758F80110083F8F4200F066
:102C7C0092804B6823F00303934202D989688F42F8
:102C8C00F7D1CF68D8F80420C4E90217BC60CC6037
:102C9C00EBE6142B59D9542B00F2A1802B0B03F12A
:102CAC006F0003F16E07C1009EE60EF1010E1EF0DF
:102CBC00030F04F108047FF4EAAE51E03C463A44B9
:102CCC005368F96854F8085F43F0010353603046C9
:102CDC00E9608D6000F0F6F804E7E80805F10803F8
:102CEC004CE622445368304643F0010353600834E9
:102CFC0000F0E8F8F6E645F0010743F00101254441
:102D0C0067603046C8E90455C5E902CC6960A35038
:102D1C0000F0D8F80834E5E6930903F13901C9004D
:102D2C0038339EE7444564D0D8F80840606820F0FA
:102D3C00030B5D45ABEB050302D80F2B3FF770AFD0
:102D4C00304600F0BFF80024CCE603F15C0003F140
:102D5C005B07C10048E659F808394B4540F0A9809B
:102D6C0010F0030F00F1FF30F5D1D8F8043023EA4E
:102D7C000103C8F80430490099423FF6CFAE19B9A7
:102D8C00CCE649000EF1040E1942FAD070467AE6F0
:102D9C0003F1100BDFE64FF0010E9A10D8F8043057
:102DAC000EFA02F21A43C8F804206DE702EB0B018D
:102DBC004942C1F30B0949463046009200F088F8AD
:102DCC00431CDDE900237FF4FCAED146FCE6542B1A
:102DDC0026D8130B03F16F01C9006E3341E7B3F52D
:102DEC00AA7F26D8EB0B03F1780003F17707C1001B
:102DFC00FAE51A4B186858441860BEE6CAF30B0C77
:102E0C00BCF1000F7FF4B9AED8F80840BB444BF0CE
:102E1C0001006060F9E61446F7E6012353608FE782
:102E2C00B3F5AA7F32D8D30B03F17801C9007733FD
:102E3C0017E740F25452934232D8AB0C03F17D00A9
:102E4C0003F17C07C100CFE5AAF1080AD3444FF087
:102E5C000009ABEB020BB7E6A808002078080020AD
:102E6C00A0080020A40800204004002048040020F2
:102E7C004808002004F108013046009300F0B0F837
:102E8C00D8F80840009B60681968BEE640F25451BF
:102E9C008B420AD8930C03F17D01C9007C33E0E628
:102EAC004FF47E717F207E279EE54FF47E717E234A
:102EBC00D7E6D8F804305EE7014800F097B900BFB8
:102ECC00C00B0020014800F093B900BFC00B0020DC
:102EDC00002238B5064D044608462A6000F0D0F9A9
:102EEC00431C00D038BD2B68002BFBD0236038BDB1
:102EFC00D40B0020024B13B1024800F005B8704708
:102F0C0000000000212F0008002301461A46184635
:102F1C0000F070B938B5084B084D5B1B9C1007D0FE
:102F2C00043B1D44013C55F804399847002CF9D159
:102F3C00BDE8384000F0B8B90C3500080835000879
:102F4C00F8B50C46234F0646FFF7B6FFBB68C4F531
:102F5C007E615D680F3125F003054B1923F47F6307
:102F6C0023F00F03A3F58054B4F5805F07DB002139
:102F7C003046FFF7ADFFBB682B44984204D0304677
:102F8C00FFF7A0FF0020F8BD30466142FFF7A0FF1D
:102F9C0001300DD0104AB96813682D1B45F001059E
:102FAC0030461B1B4D601360FFF78CFF0120F8BDF2
:102FBC0000213046FFF78CFFBA68831A0F2BDEDD39
:102FCC00064943F001030C680349001B5360086079
:102FDC00D5E700BF400400207808002048080020F6
:102FEC0000295FD0F8B50C460646FFF765FF54F88C
:102FFC00043CDFF8F4C1A4F1080023F001014218ED
:10300C00DCF808705568974225F0030500F08980BC
:10301C00DF07556034D454F8087C0CF10804C01B4D
:10302C0083683944A3426AD057197F68D0F80CE002
:10303C00C3F80CE0CEF80830FB0740F1978041F064
:10304C00010343601160B1F5007F34D20122DCF83A
:10305C000440CB084909134402FA01F121430CEB5B
:10306C00C3025CF83340083AC0E90242CCF80410C1
:10307C004CF83300E0603046BDE8F840FFF722BF63
:10308C0053195B68DF070ED429440CF108049368CC
:10309C00A34273D0D46841F00102DC60A3604260AB
:1030AC004150D0E7704741F00103B1F5007F44F87F
:1030BC00043C1160CAD3B1F5206F4FEA51234AD2B8
:1030CC008B0903F13905ED0003F138025CF805308A
:1030DC000CEB0504083C9C4259D05A6822F00302C0
:1030EC008A4202D99B689C42F7D1DC68C0E9023461
:1030FC00A060D8603046BDE8F840FFF7E3BE531936
:10310C005B68DB0766D4D2E90223294441F0010451
:10311C00D3609A60446041503046BDE8F840FFF7F8
:10312C00D1BEDB07294407D454F8084C001BD0E966
:10313C0002232144D3609A60294B41F001021B68A1
:10314C0042608B42CCF8080095D8264B3046196863
:10315C00FFF7F6FE8FE7142B0AD9542B21D80B0B53
:10316C0003F16F05ED0003F16E02AFE729448EE722
:10317C0003F15C05ED0003F15B02A7E741F00103ED
:10318C00CCE90400C0E902444360415073E70125D7
:10319C00DCF80410921005FA02F20A43CCF8042071
:1031AC00A4E7B3F5AA7F06D8CB0B03F17805ED00A5
:1031BC0003F177028AE740F25452934206D88B0C03
:1031CC0003F17D05ED0003F17C027FE74FF47E7582
:1031DC007E227BE741F00103436011604BE700BFA7
:1031EC004C080020A808002040040020704700BFB5
:1031FC00704700BF2DE9F047DFF880A00646DAF8EB
:10320C00000098460F469146FFF7F0FF1A4B1B68DB
:10321C00D3F8484124B365681F2D26DC5EB96B1CBE
:10322C000235DAF80000636044F82570FFF7E0FF20
:10323C000020BDE8F087012304EB8501C1F88890DC
:10324C00D4F88821AB401A43022EC4F88821C1F867
:10325C000881E4D1D4F88C211343C4F88C31DEE717
:10326C0003F5A674C3F84841D5E7DAF80000FFF778
:10327C00BFFF4FF0FF30DCE7FC34000850080020A3
:10328C00044A05491368002B08BF0B46184410600C
:10329C0018467047AC080020D80B0020F8B500BFCA
:1032AC00F8BC08BC9E467047F8B500BFF8BC08BC1B
:0432BC009E46704773
:1032C000FFFFFD0005070055000604260000000072
:1032D00002030405060708090A0B0C0D0E0F101057
:1032E00000000000000005800F800A001B801E0007
:1032F00014001180338036003C00398028002D8076
:1033000027802200638066006C00698078007D80E1
:1033100077807200500055805F805A004B804E00CD
:1033200044004180C380C600CC00C980D800DD8045
:10333000D780D200F000F580FF80FA00EB80EE002D
:10334000E400E180A000A580AF80AA00BB80BE00A1
:10335000B400B180938096009C00998088008D8095
:1033600087808200838186018C01898198019D81FB
:1033700097819201B001B581BF81BA01AB81AE01E5
:10338000A401A181E001E581EF81EA01FB81FE0159
:10339000F401F181D381D601DC01D981C801CD814D
:1033A000C781C201400145814F814A015B815E01B5
:1033B00054015181738176017C01798168016D81AD
:1033C00067816201238126012C01298138013D8119
:1033D00037813201100115811F811A010B810E0105
:1033E00004010181038306030C03098318031D8371
:1033F00017831203300335833F833A032B832E0355
:1034000024032183600365836F836A037B837E03C8
:1034100074037183538356035C03598348034D83BC
:1034200047834203C003C583CF83CA03DB83DE0324
:10343000D403D183F383F603FC03F983E803ED831C
:10344000E783E203A383A603AC03A983B803BD8388
:10345000B783B203900395839F839A038B838E0374
:1034600084038183800285828F828A029B829E02EE
:1034700094029182B382B602BC02B982A802AD82E4
:10348000A782A202E382E602EC02E982F802FD8250
:10349000F782F202D002D582DF82DA02CB82CE023C
:1034A000C402C182438246024C02498258025D82B4
:1034B00057825202700275827F827A026B826E029C
:1034C00064026182200225822F822A023B823E0210
:1034D00034023182138216021C02198208020D8204
:1034E0000782020200000000000000000102030445
:1034F000060708090000000001020304180000206C
:08350000012F00083101000851
:043508000D010008A9
:10350C000100000010000000320000000024F40054
:10351C001800002000000000000000000403002040
:10352C006C030020D4030020000000000000000009
:10353C00000000000000000000000000000000007F
:10354C00000000000000000000000000000000006F
:10355C00000000000000000000000000000000005F
:10356C00000000000000000000000000000000004F
:10357C00000000000000000000000000000000003F
:10358C00000000000000000000000000000000002F
:10359C00000000000000000000000000000000001F
:1035AC00000000000000000000000000000000000F
:1035BC0000000000000000000000000000000000FF
:1035CC0001000000000000000E33CDAB34126DE69C
:1035DC00ECDE05000B000000000000000000000005
:1035EC0000000000000000000000000000000000CF
:1035FC0000000000000000000000000000000000BF
:10360C0000000000000000000000000000000000AE
:10361C00000000000000000000000000000000009E
:10394C0000000000000000004004002040040020A3
:10395C00480400204804002050040020500400209B
:10396C00580400205804002060040020600400204B
:10397C0068040020680400207004002070040020FB
:10398C0078040020780400208004002080040020AB
:10399C00880400208804002090040020900400205B
:1039AC009804002098040020A0040020A00400200B
:1039BC00A8040020A8040020B0040020B0040020BB
:1039CC00B8040020B8040020C0040020C00400206B
:1039DC00C8040020C8040020D0040020D00400201B
:1039EC00D8040020D8040020E0040020E0040020CB
:1039FC00E8040020E8040020F0040020F00400207B
:103A0C00F8040020F8040020000500200005002028
:103A1C0008050020080500201005002010050020D6
:103A2C001805002018050020200500202005002086
:103A3C002805002028050020300500203005002036
:103A4C0038050020380500204005002040050020E6
:103A5C004805002048050020500500205005002096
:103A6C005805002058050020600500206005002046
:103A7C0068050020680500207005002070050020F6
:103A8C0078050020780500208005002080050020A6
:103A9C008805002088050020900500209005002056
:103AAC009805002098050020A0050020A005002006
:103ABC00A8050020A8050020B0050020B0050020B6
:103ACC00B8050020B8050020C0050020C005002066
:103ADC00C8050020C8050020D0050020D005002016
:103AEC00D8050020D8050020E0050020E0050020C6
:103AFC00E8050020E8050020F0050020F005002076
:103B0C00F8050020F8050020000600200006002023
:103B1C0008060020080600201006002010060020D1
:103B2C001806002018060020200600202006002081
:103B3C002806002028060020300600203006002031
:103B4C0038060020380600204006002040060020E1
:103B5C004806002048060020500600205006002091
:103B6C005806002058060020600600206006002041
:103B7C0068060020680600207006002070060020F1
:103B8C0078060020780600208006002080060020A1
:103B9C008806002088060020900600209006002051
:103BAC009806002098060020A0060020A006002001
:103BBC00A8060020A8060020B0060020B0060020B1
:103BCC00B8060020B8060020C0060020C006002061
:103BDC00C8060020C8060020D0060020D006002011
:103BEC00D8060020D8060020E0060020E0060020C1
:103BFC00E8060020E8060020F0060020F006002071
:103C0C00F8060020F806002000070020000700201E
:103C1C0008070020080700201007002010070020CC
:103C2C00180700201807002020070020200700207C
:103C3C00280700202807002030070020300700202C
:103C4C0038070020380700204007002040070020DC
:103C5C00480700204807002050070020500700208C
:103C6C00580700205807002060070020600700203C
:103C7C0068070020680700207007002070070020EC
:103C8C00780700207807002080070020800700209C
:103C9C00880700208807002090070020900700204C
:103CAC009807002098070020A0070020A0070020FC
:103CBC00A8070020A8070020B0070020B0070020AC
:103CCC00B8070020B8070020C0070020C00700205C
:103CDC00C8070020C8070020D0070020D00700200C
:103CEC00D8070020D8070020E0070020E0070020BC
:103CFC00E8070020E8070020F0070020F00700206C
:103D0C00F8070020F8070020000800200008002019
:103D1C0008080020080800201008002010080020C7
:103D2C001808002018080020200800202008002077
:103D3C002808002028080020300800203008002027
:103D4C003808002038080020FFFFFFFF00000200A9
:043D5C00B00B002088
:04000005080028C106
:00000001FF
