:020000040800F2
:100000000050002085250008C5240008C9240008E8
:10001000D9240008DB240008DD24000800000000CB
:10002000000000000000000000000000DF240008C5
:10003000E124000800000000E3240008E524000893
:10004000CD250008CD250008CD250008CD250008C8
:10005000CD250008CD250008CD250008CD250008B8
:10006000CD250008CD250008CD250008CD250008A8
:10007000CD250008CD250008CD250008ED24000879
:10008000CD250008CD250008CD250008CD25000888
:10009000CD250008CD250008CD250008CD25000878
:1000A000CD250008CD250008CD250008CD25000868
:1000B000CD250008CD250008CD250008CD25000858
:1000C000CD250008CD250008CD250008CD25000848
:1000D000CD25000805250008CD250008CD25000800
:1000E000CD250008CD250008CD2500080000000022
:1000F0000000000000000000000000000000000000
:0C01000000000000000000005FF808F1A3
:10010C0010B5054C237833B9044B13B10448AFF345
:10011C0000800123237010BD4C080020000000005B
:10012C000830000808B5034B1BB103490348AFF373
:10013C00008008BD000000005008002008300008B6
:10014C0010B504460E4B18784FF47A73B3FBF0F3EA
:10015C000C4A1068B0FBF3F000F0A4F868B90F2C4F
:10016C0001D901200AE0002221464FF0FF3000F0B7
:10017C0057F8054B1C60002000E0012010BD00BFAB
:10018C0000000020080000200400002008B5074AE9
:10019C00136843F010031360032000F02FF80020C5
:1001AC00FFF7CEFF02F0B0F8002008BD002002409F
:1001BC00034A1168034B1B780B441360704700BF54
:1001CC00A008002000000020014B1868704700BFF9
:1001DC00A008002038B50446FFF7F6FF0546B4F139
:1001EC00FF3F02D0044B1B781C44FFF7EDFF401B74
:1001FC00A042FAD338BD00BF00000020074AD368E4
:10020C0023F4E0631B041B0C000200F4E0600343C6
:10021C0043F0BF6343F40033D360704700ED00E05C
:10022C0030B4174BDB68C3F30223C3F10704042C6F
:10023C0028BF04241D1D062D18D9033B4FF0FF3594
:10024C0005FA04F421EA0401994005FA03F322EAC1
:10025C000303194300280BDB0901C9B200F160400C
:10026C0000F5614080F8001330BC70470023E5E7CF
:10027C0000F00F000901C9B2024B1954F4E700BF9A
:10028C0000ED00E014ED00E0002807DB00F01F0299
:10029C00400901239340024A42F82030704700BFC6
:1002AC0000E100E00138B0F1807F0AD2064B5860C3
:1002BC00064AF02182F823100020986007221A6069
:1002CC0070470120704700BF10E000E000ED00E037
:1002DC0070B4066CC56B0124B4406C600468636038
:1002EC004368102B05D0036899600368DA6070BC12
:1002FC00704703689A600368D960F8E760B310B47C
:10030C0002460168154B0B441548A0FB03031B095F
:10031C009B001364134BD363022382F821300868CB
:10032C0020F47F5020F03000536894682343D46845
:10033C002343146923435469234394692343D469A5
:10034C00234303430B6000209063012382F8213088
:10035C0082F8200010BC704701207047F8FFFDBFE9
:10036C00CDCCCCCC0000024038B5044690F820002F
:10037C00012831D0012084F8200094F821000128B4
:10038C0004D0002384F82030022038BD022084F8E9
:10039C0021000020A0632568286820F00100286057
:1003AC002046FFF795FFE36A5BB12268136843F0C0
:1003BC000E0313602268136843F0010313600020DE
:1003CC00E3E72268136823F00403136022681368C0
:1003DC0043F00A031360EDE70220D6E708B590F866
:1003EC002130022B03D004238363012008BD026853
:1003FC00136823F00E0313600268136823F00103E3
:10040C0013600368194A934214D0143293421FD0DC
:10041C00143293421ED0143293421ED014329342A3
:10042C001ED01432934202D04FF0807203E04FF48E
:10043C00801200E001220E4B5A60012380F821301B
:10044C00002380F82030436B6BB198470020CDE738
:10045C001022F0E74FF48072EDE74FF48052EAE798
:10046C004FF48032E7E70020C0E700BF08000240ED
:10047C000000024038B5C36B1A6804682568016C2B
:10048C0004238B40134235D015F0040F32D023686F
:10049C0013F0200F03D1236823F0040323600368B7
:1004AC00434A934214D01432934218D014329342DC
:1004BC0017D01432934217D01432934217D01432FF
:1004CC00934202D04FF0806203E04FF4800200E0D0
:1004DC000422384B5A60C36A03B1984738BD402296
:1004EC00F7E74FF48062F4E74FF48042F1E74FF402
:1004FC008022EEE702238B4013423CD015F0020F12
:10050C0039D0236813F0200F06D1236823F00A0397
:10051C002360012380F821300368254A934214D0CC
:10052C00143293421CD0143293421BD01432934297
:10053C001BD0143293421BD01432934202D04FF092
:10054C00007203E04FF4001200E00222194B5A60D3
:10055C00002380F82030836A002BBFD09847BDE77A
:10056C002022F3E74FF40072F0E74FF40052EDE76E
:10057C004FF40032EAE7082303FA01F11142ADD03F
:10058C0015F0080FAAD0236823F00E032360026C29
:10059C00C16B012303FA02F24A60836380F82130B5
:1005AC00002380F82030036B002B97D0984795E7F9
:1005BC000800024000000240F0B482B000252C4636
:1005CC00A3E07F4FBB4210D007D97E4FBB420CD06B
:1005DC0007F58037BB4208D013E0A7F58017BB4264
:1005EC0003D007F57027BB4207D18B68002B58D07E
:1005FC00012B51D04261082503E0A7F58017BB42BF
:10060C00F3D0FF2E4FD88446FF2E4FD8A200DCF833
:10061C0000300F27974023EA070305FA02F2134331
:10062C00CCF800304B6813F0805F6DD0664B9A6944
:10063C0042F001029A619B6903F001030193019B53
:10064C00A208971C614B53F8273004F00307BF0036
:10065C004FF00F0C0CFA07FC23EA0C0C5C4B984285
:10066C002AD003F58063984200F08A8003F58063FA
:10067C00984200F0878003F5806398421AD00423D7
:10068C001BE0CD68BDE7CD680435BAE7CD68083509
:10069C00B7E7CD680C35B4E702610825B1E7002552
:1006AC00AFE70425ADE700F1040CADE7A4F10802B7
:1006BC009200ACE7032300E00023BB4043EA0C03A9
:1006CC000232424F47F822304B6813F4803F5BD024
:1006DC00404A1368334313604B6813F4003F59D0FE
:1006EC003C4A5368334353604B6813F4801F57D014
:1006FC00384A9368334393604B6813F4001F55D00A
:10070C00344AD3681E43D66001340B6833FA04F2C2
:10071C0052D00122A24003EA020632EA0303F3D1CB
:10072C004B68122B3FF64DAF122B3FF66AAF01A769
:10073C0057F823F0F70500088F0600089906000803
:10074C00AB0600080F0600080F0600080F0600088D
:10075C000F0600080F0600080F0600080F06000819
:10076C000F0600080F0600080F0600080F06000809
:10077C000F0600080F060008930600089F060008E5
:10078C0001239AE7022398E7124A136823EA060327
:10079C001360A1E70F4A536823EA06035360A3E7EB
:1007AC000C4A936823EA06039360A5E7094AD368C9
:1007BC0023EA0606D660A7E702B0F0BC704700BF7C
:1007CC000000221000003110001002400000014017
:1007DC0000080140000401400AB10161704709049E
:1007EC000161704703685A6912F4806F01D10020CF
:1007FC0070476FF480625A6100230363202280F8F3
:10080C003D2080F83E30026C42F00402026480F815
:10081C003C30012070472DE9F04107460D469046CB
:10082C001E4622E0FFF7D0FC069BC01AB04200D84F
:10083C00DEB900233B63202287F83D2087F83E3049
:10084C003A6C42F020023A6487F83C3001201AE0FE
:10085C003B689C6925EA0404A4B2B4FA84F46409E4
:10086C00A0450FD1B6F1FF3FDCD1C5F30743012BF7
:10087C00EED13B685C6925EA0404A4B2B4FA84F4B2
:10088C006409EDE70020BDE8F0812DE9F041054653
:10089C000E46174698463DE01A6842F400721A60FC
:1008AC002B686FF480625A6100232B63202285F839
:1008BC003D2085F83E302A6C42F004022A6485F80B
:1008CC003C30012034E0FFF77FFCA0EB0800B8427D
:1008DC0000D8FFB900232B63202285F83D2085F832
:1008EC003E302A6C42F020022A6485F83C3001200C
:1008FC001EE02B689C6926EA0404A4B2003C18BFD5
:10090C000124A4B12B685A6912F4806FC4D1B7F1D9
:10091C00FF3FD8D1C6F30743012BEAD12B685C69A2
:10092C0026EA0404A4B2003C18BF0124E9E7002025
:10093C00BDE8F08170B504460D46164623685B6928
:10094C0013F0800F1CD12046FFF74CFFD0B9B5F146
:10095C00FF3FF3D0FFF738FC801BA84201D8002DD5
:10096C00ECD100232363202284F83D2084F83E3010
:10097C00226C42F02002226484F83C30012000E01A
:10098C00002070BD0120FCE72DE9F04784B004463F
:10099C000D4616469946DDF830800D9F02681368A7
:1009AC0043F4806313600368196841F48071196023
:1009BC000097434600224FF00111FFF72CFF18B1AE
:1009CC00012004B0BDE8F0875FFA85FA236805F0D2
:1009DC00FE051D613B46424636492046FFF755FF52
:1009EC0008B10120EDE70023039323685A690392B1
:1009FC009B690393039B3A4641462046FFF79AFFB7
:100A0C0080B9B9F1010F18D12368F6B21E613A46CC
:100A1C0041462046FFF78EFF68B3236C042B24D08D
:100A2C000120CEE7236C042B01D00120C9E72268FA
:100A3C00136843F400731360F7E72368320A1A61F2
:100A4C003A4641462046FFF775FF18B92368F6B2BF
:100A5C001E61DCE7236C042B01D00120B1E7226876
:100A6C00136843F400731360F7E72268136843F4C8
:100A7C0000731360D4E72268136843F48073136027
:100A8C000097434600224FF001112046FFF7C3FEAA
:100A9C0008B1012095E722684AF0010313613B4637
:100AAC00424604492046FFF7F0FE002889D0012079
:100ABC0087E700BF0200010070B505460C461646DC
:100ACC002B68596911F0400F29D1596911F0100F99
:100ADC0015D1FFF779FB801BA04201D8002CEFD178
:100AEC0000232B63202285F83D2085F83E302A6CAC
:100AFC0042F020022A6485F83C30012070BD6FF072
:100B0C0010025A6100232B63202285F83D2085F8C2
:100B1C003E302A6C2A6485F83C300120EEE7002038
:100B2C00ECE70000002800F0C280F8B5044690F80D
:100B3C003D30002B6DD0242384F83D30226813689F
:100B4C0023F00103136000F04FFD62685A4B9A4288
:100B5C0064D85A4B98428CBF00230123002B40F0E1
:100B6C00A880574DA5FB0035AF0C2668716821F0A5
:100B7C003F0141EA9541716021680B6A23F03F0304
:100B8C0065684D4A95424FD87A1C13430B62256811
:100B9C00E96921F44F4121F0FF016368464A934211
:100BAC004CD801385B00B0FBF3F0013040F6FC731D
:100BBC00184278D0C0F30B030B43EB6121680B6830
:100BCC0023F0C003E269206A024313430B602168DF
:100BDC008B6823F4034323F0FF032269E06802438C
:100BEC0013438B602168CB6823F0FF036269A06913
:100BFC0002431343CB602268136843F00103136074
:100C0C0000202064202384F83D30206384F83E00CB
:100C1C00F8BD80F83C3001F099FB8CE7294B9842E9
:100C2C008CBF0023012399E74FF4967202FB07F265
:100C3C00254DA5FB025292090132A6E7A268BAB96A
:100C4C00461E03EB4307B6FBF7F60136C6F30B065D
:100C5C00B6FA86F6760946BBC2B9421E03EB4303CD
:100C6C00B2FBF3F20132C2F30B0242F40043A3E7EE
:100C7C00461E03EB830707EB8707B6FBF7F6013637
:100C8C00C6F30B06B6FA86F67609E4E7421E03EBCA
:100C9C00830303EB8303B2FBF3F20132C2F30B02C7
:100CAC0042F4404388E7042386E7012384E70120CC
:100CBC0070470120ACE700BFA08601007F841E00B6
:100CCC0083DE1B43FF083D00D34D62102DE9F0433A
:100CDC0087B004460F4690469946109EFFF774FA6B
:100CEC00054694F83D00C0B2202804D002273846AF
:100CFC0007B0BDE8F0830095192301228F492046E7
:100D0C00FFF789FD002840F0518194F83C30012B0D
:100D1C0000F04E81012384F83C3023681A6812F0ED
:100D2C00010F03D11A6842F001021A60226813689D
:100D3C0023F400631360222384F83D30402384F8AD
:100D4C003E30002323640E9B6362BDF83C30638508
:100D5C00638D23857A4BE362019500964B464246A0
:100D6C0039462046FFF710FE0746002840F0228146
:100D7C00238D5BB9029323685A6902929A69029295
:100D8C00029A1A6842F400721A60A5E0012B0FD087
:100D9C00022B21D02268136843F480631360002374
:100DAC00059323685A6905929B690593059B93E00B
:100DBC002268136823F48063136072B600230393D4
:100DCC0023685A6903929A690392039A1A6842F447
:100DDC0000721A6062B67FE02268136843F4006305
:100DEC00136072B60023049323685A6904929A69BB
:100DFC000492049A1A6822F480621A6062B66BE05C
:100E0C002A4631462046FFF757FE002840F0D48092
:100E1C0023681A69636A1A70636A01336362238DEB
:100E2C00013B2385638D9BB2013B9BB2638553E0F1
:100E3C0000953346002243492046FFF7ECFC00287E
:100E4C0040F0BC8072B62268136843F400731360E0
:100E5C0023681A69636A1A70636A01336362238DAB
:100E6C00013B2385638D9BB2013B9BB2638562B6CC
:100E7C0023681A69636A1A70636A01336362238D8B
:100E8C00013B2385638D9BB2013B9BB2638523E0C1
:100E9C002268136843F40073136023681A69636A49
:100EAC001A70636A01336362238D013B2385638D62
:100EBC009BB2013B9BB2638562B623681A69636A75
:100ECC001A70636A01336362238D013B2385638D42
:100EDC009BB2013B9BB26385238D002B5DD0032B12
:100EEC0032D8012B8CD0022BA2D000953346002295
:100EFC0014492046FFF78FFC002861D12268136843
:100F0C0023F48063136072B623681A69636A1A70DB
:100F1C00636A01336362238D013B2385638D9BB22E
:100F2C00013B9BB263850095334600220549204660
:100F3C00FFF771FC0028ABD00127D8E602001000A7
:100F4C000000FFFF040001002A4631462046FFF74F
:100F5C00B3FD002836D123681A69636A1A70626A75
:100F6C00531C6362238D013B2385638D9BB2013B34
:100F7C009BB263852368596911F0040FACD01B69CF
:100F8C005370636A01336362238D013B2385638D48
:100F9C009BB2013B9BB263859EE7202384F83D30D6
:100FAC00002384F83E3084F83C30A0E602279EE60D
:100FBC0002279CE601279AE6012798E6012796E688
:100FCC00012794E6012792E682B0084B1B68084A79
:100FDC00A2FB03235B0A00FB03F3019300BF019BFD
:100FEC005A1E0192002BF9D102B070470800002064
:100FFC00D34D6210002800F0F18170B582B0044628
:10100C00036813F0010F2CD0AA4B5B6803F00C03A0
:10101C00042B1DD0A74B5B6803F00C03082B12D0DC
:10102C006368B3F5803F41D0002B55D103F1804369
:10103C0003F504331A6822F480321A601A6822F419
:10104C0080221A6037E09B4B5B6813F4803FE7D03B
:10105C00984B1B6813F4003F03D06368002B00F01F
:10106C00BF81236813F0020F75D0924B5B6813F0AD
:10107C000C0F5FD08F4B5B6803F00C03082B54D024
:10108C002369002B00F089808B4B01221A60FFF73B
:10109C009BF80546874B1B6813F0020F74D1FFF7C2
:1010AC0093F8401B0228F5D903209EE1814A13686E
:1010BC0043F480331360636843B3FFF785F8054648
:1010CC007C4B1B6813F4003FCBD1FFF77DF8401B22
:1010DC006428F5D9032088E1B3F5A02F09D0754B0E
:1010EC001A6822F480321A601A6822F480221A607C
:1010FC00E1E703F18043A3F53C331A6842F4802204
:10110C001A601A6842F480321A60D4E7FFF75CF870
:10111C000546684B1B6813F4003FA2D0FFF754F848
:10112C00401B6428F5D903205FE1624B5B6813F424
:10113C00803FA5D15F4B1B6813F0020F03D02369CE
:10114C00012B40F04F815B4A136823F0F80361696F
:10115C0043EAC1031360236813F0080F32D0A3696C
:10116C00002B45D0554B01221A60FFF72DF8054690
:10117C00504B5B6A13F0020F21D1FFF725F8401B8F
:10118C000228F5D9032030E14A4A136823F0F8030A
:10119C00616943EAC1031360DDE7474B00221A6023
:1011AC00FFF712F80546434B1B6813F0020FD2D021
:1011BC00FFF70AF8401B0228F5D9032015E101209E
:1011CC00FFF702FF236813F0040F00F09780394BF0
:1011DC00DB6913F0805F1DD1364BDA6942F0805227
:1011EC00DA61DB6903F080530193019B012512E066
:1011FC00324B00221A60FEF7E7FF05462D4B5B6A67
:10120C0013F0020FDED0FEF7DFFF401B0228F5D9EA
:10121C000320EAE000252A4B1B6813F4807F11D0D1
:10122C00E368012B22D0002B38D103F1804303F566
:10123C0004331A6A22F001021A621A6A22F00402BA
:10124C001A6218E01E4A136843F480731360FEF7A9
:10125C00BBFF06461A4B1B6813F4807FE0D1FEF7E8
:10126C00B3FF801B6428F5D90320BEE0114A136A32
:10127C0043F001031362E36873B3FEF7A5FF064660
:10128C000C4B1B6A13F0020F37D1FEF79DFF801B2E
:10129C0041F288339842F3D90320A6E0052B11D0F4
:1012AC00044B1A6A22F001021A621A6A22F0040232
:1012BC001A62E0E700100240000042428004424201
:1012CC00007000404D4B1A6A42F004021A621A6A0E
:1012DC0042F001021A62CEE7FEF776FF0646474B54
:1012EC001B6A13F0020F08D0FEF76EFF801B41F251
:1012FC0088339842F3D9032077E0E5B9E369002BF2
:10130C0072D03E4A526802F00C02082A56D0022BC8
:10131C0017D03B4B00221A60FEF756FF0446374BA2
:10132C001B6813F0007F47D0FEF74EFF001B02280E
:10133C00F5D9032059E0314AD36923F08053D361A6
:10134C00DCE72F4B00221A60FEF73EFF05462B4BC5
:10135C001B6813F0007F06D0FEF736FF401B0228F7
:10136C00F5D9032041E0236AB3F5803F1AD0234915
:10137C004B6823F47413226A606A024313434B6074
:10138C001F4B01221A60FEF71FFF04461B4B1B6804
:10139C0013F0007F0ED1FEF717FF001B0228F5D9C2
:1013AC00032022E0154A536823F40033A1680B4351
:1013BC005360DCE7002018E0002016E0012B16D06B
:1013CC000E4B5B6803F48031226A914211D103F415
:1013DC007013626A93420ED1002006E00120704720
:1013EC00012002E0012000E0002002B070BD0120CD
:1013FC00FBE70120F9E70120F7E700BF00100240EE
:10140C006000424286B0164B0FCB0DF1180C0CE964
:10141C000F0040F20123ADF80430124B5B6803F06F
:10142C000C02082A02D0104806B07047C3F383425E
:10143C00624412F8102C13F4803F0CD0094B5B68FB
:10144C00C3F34043634413F8143C074800FB02F019
:10145C00B0FBF3F0E8E7054800FB02F0E4E700BF5F
:10146C00203000080010024000127A0000093D00F4
:10147C00002800F0A08070B50D460446524B1B6846
:10148C0003F007038B420BD24F4A136823F0070378
:10149C000B431360136803F007038B4240F08D80FD
:1014AC00236813F0020F17D013F0040F04D0474A2F
:1014BC00536843F4E0635360236813F0080F04D0BF
:1014CC00424A536843F460535360404A536823F0D4
:1014DC00F003A1680B435360236813F0010F31D064
:1014EC006368012B20D0022B25D0384A126812F0E9
:1014FC00020F64D035494A6822F0030213434B6053
:10150C00FEF762FE0646314B5B6803F00C03626823
:10151C00B3EB820F16D0FEF757FE801B41F28833D7
:10152C009842F0D9032045E0284A126812F4003F93
:10153C00E0D101203EE0254A126812F0007FD9D19B
:10154C00012037E0204B1B6803F00703AB420AD99C
:10155C001D4A136823F007032B431360136803F031
:10156C000703AB422DD1236813F0040F06D0174AA2
:10157C00536823F4E063E1680B435360236813F072
:10158C00080F07D0114A536823F46053216943EACA
:10159C00C1035360FFF736FF0C4B5B68C3F30313B7
:1015AC000B4AD35CD8400B4B18600B4B1868FEF7FA
:1015BC00C7FD002070BD012070470120FAE7012013
:1015CC00F8E70120F6E700BF0020024000100240BF
:1015DC00343000080800002004000020014B18687B
:1015EC00704700BF0800002008B5FFF7F7FF044B59
:1015FC005B68C3F30223034AD35CD84008BD00BF29
:10160C00001002404430000808B5FFF7E7FF044B18
:10161C005B68C3F3C223034AD35CD84008BD00BF48
:10162C0000100240443000080268D36823F0C00365
:10163C00D360202380F8393070470268D36823F4D4
:10164C009073D3600268536923F001035361202324
:10165C0080F83A30704790F83930DBB2212B01D04A
:10166C00022070478368B3F5805F17D0036A5A1C59
:10167C0002621A7803685A60C38C9BB2013B9BB21E
:10168C00C3844BB90268D36823F08003D36002682B
:10169C00D36843F04003D36000207047036A1B8873
:1016AC000268C3F30803536003691BB9036A02336E
:1016BC000362E1E7036A01330362DDE738B50446F0
:1016CC000268136923F44053C1680B4313618368A8
:1016DC000269134342691A430168CB6823F4B0537F
:1016EC0023F00C031343CB600268536923F440735B
:1016FC0081690B4353610268214B9A421FD0FFF75B
:10170C0073FF00EB800000EB800063689B00B0FB74
:10171C00F3F01C4DA5FB00325109642303FB1103AC
:10172C001B013233A5FB03235B0903F0F00202EB30
:10173C00011203F00F03216813448B6038BDFFF7CF
:10174C0063FF00EB800000EB800063689B00B0FB44
:10175C00F3F00C4DA5FB00325109642303FB11037C
:10176C001B013233A5FB03235B0903F0F00202EBF0
:10177C00011203F00F03216813448B60DEE700BFF6
:10178C00003801401F85EB5158B310B5044690F852
:10179C0039300BB3242384F839302268D36823F40E
:1017AC000053D3602046FFF789FF2268136923F4A6
:1017BC00904313612268536923F02A035361226812
:1017CC00D36843F40053D3600020E063202384F8F3
:1017DC00393084F83A3010BD80F8383000F0E8FD2C
:1017EC00D8E701207047000030B583B0044690F86C
:1017FC003A00C0B220283CD100293DD0002A3DD06F
:10180C0094F83830012B3BD0012384F83830A16296
:10181C00A2850025E563222384F83A30636B1948CE
:10182C009862636B1848D862636B18481863636BD3
:10183C005D63206813460A46011D606BFEF794FD3C
:10184C00019523681A6801925A680192019A84F8EA
:10185C003850DA6842F48072DA602268536943F0D7
:10186C00010353612268536943F0400353612846D6
:10187C0000E0022003B030BD0120FBE70120F9E7B6
:10188C000220F7E7B918000897190008A3190008F7
:10189C00704708B50168CA6822F04002CA6020226D
:1018AC0080F83920FFF7F4FF002008BD08B5034687
:1018BC00406A1B681B6813F0200F13D10023C385EB
:1018CC000268D36823F48073D3600268536923F0F1
:1018DC00010353610268536923F0400353612023D1
:1018EC0080F83A3000F05EFC08BD08B590F83A304C
:1018FC00DBB2222B46D18368B3F5805F0FD003692E
:10190C000BBB03685A68836A591C81621A70C38DB9
:10191C009BB2013B9BB2C385F3B1002008BD826A28
:10192C00036943B903685B68C3F308031380836AD4
:10193C0002338362EBE703685B68DBB21380836A74
:10194C0001338362E3E703685B68826A511C81623E
:10195C0003F07F031370DAE70268D36823F02003E7
:10196C00D3600268D36823F48073D3600268536930
:10197C0023F001035361202380F83A3000F012FC6D
:10198C000020CBE70220C9E7704708B5406AFFF793
:10199C00FBFF08BD704710B5446A23685A6994F878
:1019AC003930DBB2212B10D023685A6902F0400287
:1019BC0094F83A30DBB2222B11D0E36B43F01003D6
:1019CC00E3632046FFF7E6FF10BD02F08002002A19
:1019DC00EAD00023E3842046FFF726FEE4E7002A42
:1019EC00EBD00023E3852046FFF727FEE5E7000058
:1019FC0010B5044602681368D168526913F00F00E1
:101A0C0005D113F0200F02D011F0200F13D128B103
:101A1C0012F0010213D111F4907F10D113F0800F4A
:101A2C0002D011F0800F69D113F0400F02D011F0E9
:101A3C00400F67D110BD2046FFF757FFFAE713F0B0
:101A4C00010F06D011F4807F03D0E06B40F0010051
:101A5C00E06313F0040F04D01AB1E06B40F0020005
:101A6C00E06313F0020F04D01AB1E06B40F00400F5
:101A7C00E06313F0080F04D01AB1E26B42F00802D5
:101A8C00E263E26B002AD5D013F0200F02D011F0E4
:101A9C00200F21D123685B6903F04003E26B12F045
:101AAC00080F00D123B32046FFF7C7FD23685A69FE
:101ABC0012F0400F18D05A6922F040025A61636B41
:101ACC0073B1124A5A63606BFEF788FC0028B1D0E0
:101ADC00606B436B9847ADE72046FFF706FFD9E7ED
:101AEC002046FFF757FFA5E72046FFF753FFA1E776
:101AFC002046FFF74FFF0023E3639BE72046FFF7E9
:101B0C00AAFD97E72046FFF7C4FE93E71D1B0008CC
:101B1C0008B5406A0023C385C384FFF73BFF08BDAB
:101B2C0000B587B0024600238DF81730642302936A
:101B3C00012301930DF1170100916C210348FFF76C
:101B4C00C5F89DF8170007B05DF804FBB00800203D
:101B5C0010B50D20FFF7E4FF84B20C20FFF7E0FF77
:101B6C0080B2000280B2204480B210BD08B5FFF7ED
:101B7C00EFFF014B188008BDA40800202DE9F041AF
:101B8C0088B000240494059406940794214B9A6918
:101B9C0042F020029A619A6902F020020192019AA5
:101BAC009A6942F004029A619A6902F00402029264
:101BBC00029A9A6942F008029A619B6903F0080341
:101BCC000393039BDFF85480224640F20C7140468D
:101BDC00FEF702FE104D22464EF220012846FEF77B
:101BEC00FBFD40F20C730493012705970694032622
:101BFC00079604A94046FEF7DFFC4EF2200304933F
:101C0C0005970694079604A92846FEF7D5FC08B05C
:101C1C00BDE8F08100100240000C014000080140BA
:101C2C0000B583B00A4B5A6942F001025A615B69F4
:101C3C0003F001030193019B002201210F20FEF709
:101C4C00EFFA0F20FEF720FB03B05DF804FB00BF9A
:101C5C000010024008B50948094B0360094B43606A
:101C6C0000238360C3604FF480420261436183614F
:101C7C00C3610362FEF756FF08BD00BFB008002029
:101C8C0000580040A086010008B50948094B0360C4
:101C9C00094B1B685B68436000238360C36003616E
:101CAC000C2242618361C361FFF76EFD08BD00BF6A
:101CBC009009002000380140A808002010B590B011
:101CCC002422002107A800F057FF0024019402945D
:101CDC000394049405940223069301230A9310237E
:101CEC000B9306A8FFF786F90F2301930294039434
:101CFC0004940594214601A8FFF7BAFB10B010BD5F
:101D0C0008B500F05CFA114B18604FF4E131052076
:101D1C0000F04CFA0E4B1860FEF738FAFFF7CEFFC6
:101D2C00FFF72CFFFFF77CFFFFF794FFFFF7ACFFEB
:101D3C0000F0DCFAFFF71AFF002220210548FEF71D
:101D4C004BFD00F0CDF900F067F9FCE70409002029
:101D5C00A8080020000C01407047000038B5002492
:101D6C0011E00A4D012208212846FEF735FD3220EC
:101D7C00FEF730FA002208212846FEF72DFD32200E
:101D8C00FEF728FA0134032CEBDD38BD00080140C6
:101D9C0038B50024042C12DC094D012208212846F8
:101DAC00FEF71AFD3220FEF715FA0022082128460C
:101DBC00FEF712FD3220FEF70DFA0134EAE738BDCA
:101DCC000008014038B50024052C12DC094D012215
:101DDC0008212846FEF700FD3220FEF7FBF9002211
:101DEC0008212846FEF7F8FC3220FEF7F3F90134FF
:101DFC00EAE738BD0008014038B5002411E00A4D6F
:101E0C00012208212846FEF7E7FC3220FEF7E2F912
:101E1C00002208212846FEF7DFFC3220FEF7DAF913
:101E2C000134072CEBDD38BD0008014038B5002427
:101E3C00092C12DC094D012208212846FEF7CCFCA6
:101E4C003220FEF7C7F9002208212846FEF7C4FC11
:101E5C003220FEF7BFF90134EAE738BD0008014033
:101E6C0038B50024362C12DC094D012208212846F5
:101E7C00FEF7B2FC3220FEF7ADF90022082128460D
:101E8C00FEF7AAFC3220FEF7A5F90134EAE738BDCB
:101E9C000008014038B5002411E00A4D0122082148
:101EAC002846FEF799FC3220FEF794F9002208210F
:101EBC002846FEF791FC3220FEF78CF90134512CA8
:101ECC00EBDD38BD0008014038B5002411E00A4DA7
:101EDC00012208212846FEF77FFC3220FEF77AF912
:101EEC00002208212846FEF777FC3220FEF772F913
:101EFC000134522CEBDD38BD0008014038B500240C
:101F0C005B2C12DC094D012208212846FEF764FCEB
:101F1C003220FEF75FF9002208212846FEF75CFC10
:101F2C003220FEF757F90134EAE738BD00080140CA
:101F3C0038B5002411E00A4D012208212846FEF78D
:101F4C004BFC3220FEF746F9002208212846FEF70A
:101F5C0043FC3220FEF73EF901345C2CEBDD38BD3E
:101F6C000008014008B52B4B1B780A2B1CD95D2BA4
:101F7C001CD8372B1AD3373B262B17D8DFE803F0A6
:101F8C003B161616161616161616161616161616C0
:101F9C0016161616161616161616163E4116161682
:101FAC001616161616444700042B00D208BD043B27
:101FBC00062BFBD801A252F823F000BFE51F000846
:101FCC00EB1F0008F11F0008B91F0008F71F0008DD
:101FDC00B91F0008FD1F0008FFF7C0FEE6E7FFF77A
:101FEC00D7FEE3E7FFF7EEFEE0E7FFF705FFDDE7DF
:101FFC00FFF71CFFDAE7FFF733FFD7E7FFF74AFFDE
:10200C00D4E7FFF761FFD1E7FFF778FFCEE7FFF7E3
:10201C008FFFCBE7660A0020F8B50026344635461C
:10202C0001E0254604468EB9274B186800F0DBF812
:10203C0060B9254B186800F01CF9230203EB05432B
:10204C000344224A9342ECD10126EAE706B9F8BDD3
:10205C001D4C206800F00DF9206800F00AF90646C6
:10206C00206800F006F90746206800F002F9050226
:10207C00ADB2BFB23D44ADB2206800F0FAF8144BDB
:10208C001870092D1DD9104F386800F0F2F8114C5A
:10209C002070386800F0EDF860700F4B1B681B68FF
:1020AC009E42D4D12846FFF75DFFD0E7064B186857
:1020BC0000F0DFF8094B18550134EB1EA342F5DC98
:1020CC00E1E70024F9E700BF04090020FDFFFF0051
:1020DC00660A0020640A0020A8080020500A00208C
:1020EC0008B5074B00221A7006480268D36843F003
:1020FC001003D36040220449FFF776FB08BD00BFF4
:10210C00AC08002090090020D0090020074B5B6B25
:10211C001B685B689BB2064A12785B4203F03F0374
:10212C009A4201D00020704701207047900900208E
:10213C00AC0800200B4B5B6B1B685B689BB20A4ABC
:10214C00127891B25B4203F03F03994207D0531CC3
:10215C000649885C03F03F03034A13707047002064
:10216C00704700BF90090020AC080020D009002067
:10217C0010B582B0FFF7CAFF68B9094B186800F0B8
:10218C0046F840B9064B1C68FFF7D4FF01462046C1
:10219C0000F049F8EEE70123019302B010BD00BF37
:1021AC000409002008B5FFF7E3FF08BD38B5054664
:1021BC000C46082000F02AFA0560446038BD08B5CA
:1021CC004FF4027000F022FA4FF0FF33C0F80032E7
:1021DC000023C0F80432B3F5007F03DA0022C254A6
:1021EC000133F8E708BDD0F80032B3F1FF3F01D05E
:1021FC000020704701207047D0F8040201304342A0
:10220C00C0F30800C3F3080358BF5842704710B519
:10221C000446FFF7F1FFD4F80032984201D00020B9
:10222C0010BD0120FCE738B504460D46FFF7EFFF63
:10223C0090B92046FFF7D7FF30B1D4F80432C4F878
:10224C000032E554012008E02046FFF7D5FFC4F822
:10225C0004022554012000E0002038BDD0F8000213
:10226C0001304342C0F30800C3F3080358BF58427F
:10227C00704738B50446FFF7B6FF98B9D4F800326A
:10228C00D4F80422934207D0E55C2046FFF7E6FF22
:10229C00C4F80002284638BDE55C4FF0FF33C4F8A3
:1022AC000032F7E70025F5E710B50A4C00224FF491
:1022BC0000412046FEF790FA00224FF48041204660
:1022CC00FEF78AFA01224FF400512046FEF784FAF9
:1022DC0010BD00BF000C014008B500224FF4007186
:1022EC000148FEF779FA08BD0008014008B5054B16
:1022FC003C229A8008229A71FFF7D6FFFFF7ECFF79
:10230C0008BD00BF680A002082B00E4B9A6942F0EB
:10231C0001029A619A6902F001020092009ADA694C
:10232C0042F08052DA61DB6903F080530193019B28
:10233C00054A536823F0E06343F00073536002B026
:10234C00704700BF001002400000014010B586B07D
:10235C00002302930393049305930268114B9A4252
:10236C0001D006B010BD104CA36943F00803A36163
:10237C00A36903F008030093009B4FF4406302939E
:10238C00122303930323059302A90848FEF714F9BB
:10239C00E36943F48003E361E36903F4800301938D
:1023AC00019BDEE70058004000100240000C014089
:1023BC002DE9F04186B00023029303930493059317
:1023CC000268364B9A4202D006B0BDE8F081044652
:1023DC0003F558439A6942F480429A619A6902F46F
:1023EC0080420092009A9A6942F008029A619B69B5
:1023FC0003F008030193019B402302934FF0020862
:10240C00CDF80C8003230593254F02A93846FEF71F
:10241C00D3F88026029600250395CDF8108002A9EA
:10242C003846FEF7C9F81F4A536843F0E06343F09F
:10243C00040353601C481D4B036045608560C660F7
:10244C000561456120238361C561FDF757FFF0B934
:10245C00154B63635C621648164B03601023436094
:10246C00002383608022C260036143618361C36186
:10247C00FDF744FF70B90E4B23635C6201221146D9
:10248C002520FDF7CDFE2520FDF7FEFE9CE7FFF78E
:10249C0063FCDDE7FFF760FCEDE700BF00380140AF
:1024AC00000C0140000001404C0900205800024083
:1024BC0008090020440002407047000008B5024B98
:1024CC001868FFF790FEFAE704090020FEE7FEE724
:1024DC00FEE770477047704708B5FDF769FE08BD09
:1024EC0008B50348FDF7C6FF0248FDF7C3FF08BD5A
:1024FC004C0900200809002010B582B00A4C204677
:10250C00FFF776FA23681A6812F0100F01D102B0A7
:10251C0010BD002201921A6801925B680193019B25
:10252C002046FFF73FFEF2E7900900200F4B1A6898
:10253C0042F001021A6059680D4A0A405A601A6842
:10254C0022F0847222F480321A601A6822F48022FB
:10255C001A605A6822F4FE025A604FF41F029A6005
:10256C00044B4FF000629A60704700BF00100240AD
:10257C000000FFF800ED00E0002103E00B4B5B587E
:10258C00435004310A480B4B42189A42F6D30A4A7C
:10259C0002E0002342F8043B084B9A42F9D3FFF7C0
:1025AC00C5FF00F00FF8FFF7ABFB70475C3000087D
:1025BC00000000204C0800204C080020980A002045
:1025CC00FEE7000070B50D4E0D4D761BB61006D013
:1025DC00002455F8043B01349847A642F9D1094E22
:1025EC00094D00F00BFD761BB61006D0002455F8F3
:1025FC00043B01349847A642F9D170BD5030000815
:10260C00503000085830000850300008024B01468A
:10261C00186800F003B800BF0C0000202DE9F04F43
:10262C0001F10B05162D064683B024D8102900F2B3
:10263C00B68000F0F1FA102502201823DFF8E884A8
:10264C0043445C68A3F10802944200F0B4806368D0
:10265C00E16823F0030323445A68A56842F00102A1
:10266C00E96030468D6008345A6000F0DBFA204691
:10267C0003B0BDE8F08F35F0070500F19080A9425A
:10268C0000F28D8000F0C8FAB5F5FC7FC0F08581B2
:10269C006B0A00F08B80042B00F25B81AB0903F119
:1026AC00390003F13807C100DFF87C8441444C68E1
:1026BC000839A14206D10CE0002A80F22281E4689C
:1026CC00A14206D0636823F003035A1B0F2AF3DDE3
:1026DC003846D8F81040DFF854C4644577D06268A7
:1026EC0022F00302531B0F2B00F36581002BC8E96A
:1026FC0004CC80F25681B2F5007F80F00681012176
:10270C00D30852090B4401FA02F2D8F8041058F815
:10271C00337008EBC30E0A43AEF10801C4E9027131
:10272C00C8F8042048F83340FC600121831099401C
:10273C00914253D8114206D120F0030049001142B6
:10274C0000F10400FAD008EBC0094C468646E76855
:10275C00BC4207D109E1002B80F21081FF68BC421A
:10276C0000F003817A6822F00302531B0F2BF2DD79
:10277C0045F0010E3046D7E902413D4443F00106D5
:10278C00C7F804E0E1608C60C8E90455C5E902CCE7
:10279C006E60BB5000F046FA07F1080402E00C230F
:1027AC0000243360204603B0BDE8F08F4FF4007175
:1027BC0040203F2778E7DC68A34208BF02307FF453
:1027CC0046AFD8F81040DFF864C3644587D10121C7
:1027DC00D8F80420831099409142ABD9D8F808401E
:1027EC00676827F00307BD4202D87B1B0F2B77DCF1
:1027FC00DFF83C93C84BD9F800201B6801322B44FE
:10280C0004EB070A00F0248103F580530F3323F403
:10281C007F6B2BF00F0B5946304600F009FA411C28
:10282C00024600F0E180824500F2DC80BB4B196867
:10283C0059440846196000F04181D9F80010019301
:10284C0001311BBFA2EB0A0A5044C9F800201860E2
:10285C0012F0070A00F00A81CAF108010A44CAF50D
:10286C00805193440831A1EB0B01C1F30B0949468C
:10287C003046009200F0DCF9421CDDE9002300F048
:10288C004381801A00EB090B19684BF00100494495
:10289C004445C8F808201960506000F01C810F2FC7
:1028AC0040F21B814FF0050C60680C3F27F00707C6
:1028BC0000F00100384304EB070E0F2F6060CEE9E7
:1028CC0001CC00F2378114465068954B1A688A4245
:1028DC0038BF1960934B1A688A4238BF196086E07A
:1028EC0045F0010243F00103254462603046C8F80C
:1028FC00085008346B6000F095F9204603B0BDE831
:10290C00F08F23445A68E168A7E6B2F5206F4FEACE
:10291C00522361D3142B00F2BA8003F15C01C9007D
:10292C005B3308EB010758F80110083F8F4200F0A9
:10293C0092804B6823F00303934202D989688F423B
:10294C00F7D1CF68D8F80420C4E90217BC60CC607A
:10295C00EBE6142B59D9542B00F2A1802B0B03F16D
:10296C006F0003F16E07C1009EE60EF1010E1EF022
:10297C00030F04F108047FF4EAAE51E03C463A44FC
:10298C005368F96854F8085F43F00103536030460C
:10299C00E9608D6000F046F904E7E80805F10803EA
:1029AC004CE622445368304643F00103536008342C
:1029BC0000F038F9F6E645F0010743F00101254433
:1029CC0067603046C8E90455C5E902CC6960A3507C
:1029DC0000F028F90834E5E6930903F13901C90040
:1029EC0038339EE7444564D0D8F80840606820F03E
:1029FC00030B5D45ABEB050302D80F2B3FF770AF14
:102A0C00304600F00FF90024CCE603F15C0003F132
:102A1C005B07C10048E659F808394B4540F0A980DE
:102A2C0010F0030F00F1FF30F5D1D8F8043023EA91
:102A3C000103C8F80430490099423FF6CFAE19B9EA
:102A4C00CCE649000EF1040E1942FAD070467AE633
:102A5C0003F1100BDFE64FF0010E9A10D8F804309A
:102A6C000EFA02F21A43C8F804206DE702EB0B01D0
:102A7C004942C1F30B0949463046009200F0D8F8A0
:102A8C00431CDDE900237FF4FCAED146FCE6542B5D
:102A9C0026D8130B03F16F01C9006E3341E7B3F570
:102AAC00AA7F26D8EB0B03F1780003F17707C1005E
:102ABC00FAE51A4B186858441860BEE6CAF30B0CBA
:102ACC00BCF1000F7FF4B9AED8F80840BB444BF012
:102ADC0001006060F9E61446F7E6012353608FE7C6
:102AEC00B3F5AA7F32D8D30B03F17801C900773341
:102AFC0017E740F25452934232D8AB0C03F17D00ED
:102B0C0003F17C07C100CFE5AAF1080AD3444FF0CA
:102B1C000009ABEB020BB7E6980800206808002010
:102B2C009008002094080020380400204004002065
:102B3C004008002004F108013046009300F000F931
:102B4C00D8F80840009B60681968BEE640F2545102
:102B5C008B420AD8930C03F17D01C9007C33E0E66B
:102B6C004FF47E717F207E279EE54FF47E717E238D
:102B7C00D7E6D8F804305EE7F0B4860746D0541E8A
:102B8C00002A3CD00346CAB201E0013C37D303F81B
:102B9C00012B9D07F9D1032C2AD9CDB245EA052585
:102BAC000F2C45EA054534D9A4F1100222F00F0C84
:102BBC0003F120071609674403F1100242E904559A
:102BCC0042E902551032BA42F8D1721C14F00C0FC3
:102BDC0003EB021204F00F0613D0331F23F0030390
:102BEC000433134442F8045B9342FBD106F0030414
:102BFC002CB1CAB21C4403F8012B9C42FBD1F0BC93
:102C0C00704734461346002CF3D1F8E714460346BC
:102C1C00C1E71A462646E0E7014800F097B900BF25
:102C2C00800A0020014800F093B900BF800A002000
:102C3C00002238B5064D044608462A6000F0D0F94B
:102C4C00431C00D038BD2B68002BFBD0236038BD53
:102C5C00940A0020024B13B1024800F005B87047EB
:102C6C0000000000812C0008002301461A4618467B
:102C7C0000F070B938B5084B084D5B1B9C1007D0A1
:102C8C00043B1D44013C55F804399847002CF9D1FC
:102C9C00BDE8384000F0B8B95C3000085830000886
:102CAC00F8B50C46234F0646FFF7B6FFBB68C4F5D4
:102CBC007E615D680F3125F003054B1923F47F63AA
:102CCC0023F00F03A3F58054B4F5805F07DB0021DC
:102CDC003046FFF7ADFFBB682B44984204D030461A
:102CEC00FFF7A0FF0020F8BD30466142FFF7A0FFC0
:102CFC0001300DD0104AB96813682D1B45F0010541
:102D0C0030461B1B4D601360FFF78CFF0120F8BD94
:102D1C0000213046FFF78CFFBA68831A0F2BDEDDDB
:102D2C00064943F001030C680349001B536008601B
:102D3C00D5E700BF380400206808002040080020B8
:102D4C0000295FD0F8B50C460646FFF765FF54F82E
:102D5C00043CDFF8F4C1A4F1080023F0010142188F
:102D6C00DCF808705568974225F0030500F089805F
:102D7C00DF07556034D454F8087C0CF10804C01BF0
:102D8C0083683944A3426AD057197F68D0F80CE0A5
:102D9C00C3F80CE0CEF80830FB0740F1978041F007
:102DAC00010343601160B1F5007F34D20122DCF8DD
:102DBC000440CB084909134402FA01F121430CEBFE
:102DCC00C3025CF83340083AC0E90242CCF8041064
:102DDC004CF83300E0603046BDE8F840FFF722BF06
:102DEC0053195B68DF070ED429440CF1080493686F
:102DFC00A34273D0D46841F00102DC60A36042604E
:102E0C004150D0E7704741F00103B1F5007F44F821
:102E1C00043C1160CAD3B1F5206F4FEA51234AD25A
:102E2C008B0903F13905ED0003F138025CF805302C
:102E3C000CEB0504083C9C4259D05A6822F0030262
:102E4C008A4202D99B689C42F7D1DC68C0E9023403
:102E5C00A060D8603046BDE8F840FFF7E3BE5319D8
:102E6C005B68DB0766D4D2E90223294441F00104F4
:102E7C00D3609A60446041503046BDE8F840FFF79B
:102E8C00D1BEDB07294407D454F8084C001BD0E909
:102E9C0002232144D3609A60294B41F001021B6844
:102EAC0042608B42CCF8080095D8264B3046196806
:102EBC00FFF7F6FE8FE7142B0AD9542B21D80B0BF6
:102ECC0003F16F05ED0003F16E02AFE729448EE7C5
:102EDC0003F15C05ED0003F15B02A7E741F0010390
:102EEC00CCE90400C0E902444360415073E701257A
:102EFC00DCF80410921005FA02F20A43CCF8042014
:102F0C00A4E7B3F5AA7F06D8CB0B03F17805ED0047
:102F1C0003F177028AE740F25452934206D88B0CA5
:102F2C0003F17D05ED0003F17C027FE74FF47E7524
:102F3C007E227BE741F00103436011604BE700BF49
:102F4C00440800209808002038040020704700BF77
:102F5C00704700BF2DE9F047DFF880A00646DAF88D
:102F6C00000098460F469146FFF7F0FF1A4B1B687E
:102F7C00D3F8484124B365681F2D26DC5EB96B1C61
:102F8C000235DAF80000636044F82570FFF7E0FFC3
:102F9C000020BDE8F087012304EB8501C1F888907F
:102FAC00D4F88821AB401A43022EC4F88821C1F80A
:102FBC000881E4D1D4F88C211343C4F88C31DEE7BA
:102FCC0003F5A674C3F84841D5E7DAF80000FFF71B
:102FDC00BFFF4FF0FF30DCE74C3000084808002002
:102FEC00044A05491368002B08BF0B4618441060AF
:102FFC00184670479C080020980A0020F8B500BFBE
:10300C00F8BC08BC9E467047F8B500BFF8BC08BCBD
:04301C009E46704715
:1030200002030405060708090A0B0C0D0E0F101009
:103030000000000000000000000000000102030486
:103040000607080900000000010203041000002028
:08305000612C000831010008A9
:043058000D0100085E
:10305C0001000000100000000024F400100000200B
:10306C0000000000FC02002064030020CC030020C0
:10307C000000000000000000000000000000000044
:10308C000000000000000000000000000000000034
:10309C000000000000000000000000000000000024
:1030AC000000000000000000000000000000000014
:1030BC000000000000000000000000000000000004
:1030CC0000000000000000000000000000000000F4
:1030DC0000000000000000000000000000000000E4
:1030EC0000000000000000000000000000000000D4
:1030FC0000000000000000000000000000000000C4
:10310C0000000000000000000100000000000000B2
:10311C000E33CDAB34126DE6ECDE05000B00000077
:10312C000000000000000000000000000000000093
:10313C000000000000000000000000000000000083
:10314C000000000000000000000000000000000073
:10315C000000000000000000000000000000000063
:10349C0038040020380400204004002040040020A0
:1034AC004804002048040020500400205004002050
:1034BC005804002058040020600400206004002000
:1034CC0068040020680400207004002070040020B0
:1034DC007804002078040020800400208004002060
:1034EC008804002088040020900400209004002010
:1034FC009804002098040020A0040020A0040020C0
:10350C00A8040020A8040020B0040020B00400206F
:10351C00B8040020B8040020C0040020C00400201F
:10352C00C8040020C8040020D0040020D0040020CF
:10353C00D8040020D8040020E0040020E00400207F
:10354C00E8040020E8040020F0040020F00400202F
:10355C00F8040020F80400200005002000050020DD
:10356C00080500200805002010050020100500208B
:10357C00180500201805002020050020200500203B
:10358C0028050020280500203005002030050020EB
:10359C00380500203805002040050020400500209B
:1035AC00480500204805002050050020500500204B
:1035BC0058050020580500206005002060050020FB
:1035CC0068050020680500207005002070050020AB
:1035DC00780500207805002080050020800500205B
:1035EC00880500208805002090050020900500200B
:1035FC009805002098050020A0050020A0050020BB
:10360C00A8050020A8050020B0050020B00500206A
:10361C00B8050020B8050020C0050020C00500201A
:10362C00C8050020C8050020D0050020D0050020CA
:10363C00D8050020D8050020E0050020E00500207A
:10364C00E8050020E8050020F0050020F00500202A
:10365C00F8050020F80500200006002000060020D8
:10366C000806002008060020100600201006002086
:10367C001806002018060020200600202006002036
:10368C0028060020280600203006002030060020E6
:10369C003806002038060020400600204006002096
:1036AC004806002048060020500600205006002046
:1036BC0058060020580600206006002060060020F6
:1036CC0068060020680600207006002070060020A6
:1036DC007806002078060020800600208006002056
:1036EC008806002088060020900600209006002006
:1036FC009806002098060020A0060020A0060020B6
:10370C00A8060020A8060020B0060020B006002065
:10371C00B8060020B8060020C0060020C006002015
:10372C00C8060020C8060020D0060020D0060020C5
:10373C00D8060020D8060020E0060020E006002075
:10374C00E8060020E8060020F0060020F006002025
:10375C00F8060020F80600200007002000070020D3
:10376C000807002008070020100700201007002081
:10377C001807002018070020200700202007002031
:10378C0028070020280700203007002030070020E1
:10379C003807002038070020400700204007002091
:1037AC004807002048070020500700205007002041
:1037BC0058070020580700206007002060070020F1
:1037CC0068070020680700207007002070070020A1
:1037DC007807002078070020800700208007002051
:1037EC008807002088070020900700209007002001
:1037FC009807002098070020A0070020A0070020B1
:10380C00A8070020A8070020B0070020B007002060
:10381C00B8070020B8070020C0070020C007002010
:10382C00C8070020C8070020D0070020D0070020C0
:10383C00D8070020D8070020E0070020E007002070
:10384C00E8070020E8070020F0070020F007002020
:10385C00F8070020F80700200008002000080020CE
:10386C00080800200808002010080020100800207C
:10387C00180800201808002020080020200800202C
:10388C0028080020280800203008002030080020DC
:0C389C00FFFFFFFF00000200700A002088
:040000050800258545
:00000001FF
